:10000000EAEF08F00000000058EF09F000000000DF
:0C001000000000000000000019EF09F0E3
:10001C001E0E716E100E516E040E526E51C0E1FF29
:10002C0052C0E2FFE69E51C0E1FF52C0E2FFE69CE7
:10003C00040E5124E16E000E5220E26EE68C180E76
:10004C000001726F040E736F72C0E1FF73C0E2FFA8
:10005C00E69E72C0E1FF73C0E2FFE69C040E7225BF
:10006C00E16E000E7321E26EE68C020E5124E16EFD
:10007C00000E5220E26E30C4E6FF31C4E6FF010EE2
:10008C005124E16E000E5220E26E400EE66E51C01D
:10009C00E9FF52C0EAFFEECF00F051C0E1FF52C0C1
:1000AC00E2FF400E0014E66E51C0E9FF52C0EAFFB9
:1000BC00EECF00F051C0E1FF52C0E2FF880E0010FD
:1000CC00E66E51C061F052C062F0040E5118006E21
:0600DC0000C051F012000B
:1000E2000B6A0A6A096A00500402F4CF09F0F3CFDE
:1000F20008F001500502F4CF0BF0F3CF0AF00050E4
:100102000502F3500926F4500A22E86A0B22015034
:100112000402F3500926F4500A22E86A0B2208C0AE
:1001220000F009C001F00AC002F00BC003F0120097
:100132000401286B296B42D05E8E28814E50010A41
:10014200D8B4288350D05E8E4ED05E8E24BF16D097
:1001520024C403F00F0E031603C000F0000E016E5C
:100162000036009001364F0E0024E96E000E012089
:10017200EA6EEECF04F0EECF05F015D024C403F002
:100182000F0E031603C000F0000E016E0036009041
:100192000136700E0024E96E000E0120EA6EEECFE9
:1001A20004F0EECF05F004C0E9FF05C0EAFFEECF90
:1001B20001F001A402D0010E286F15D020C401F075
:1001C2001F0E01160150000AB7E020C401F01F0EF5
:1001D20001160150010AB7E020C401F01F0E0116FA
:1001E2000150020AB2E05EAE07D0280E5B6E040E2A
:0A01F2005C6E5E80020E5F6E12006C
:1001FC0004012251010A0FE120C401F01F0E011667
:10020C000150000A08E15E8E2151030A03E1010E40
:10021C004E6E01D04E6A2251000AD8A48BD020C455
:10022C0001F01F0E01160150020AD8A483D024C479
:10023C0001F00F0E01160150000AD8B47BD05E8E6F
:10024C0024BF16D024C403F00F0E031603C000F015
:10025C00000E016E0036009001364F0E0024E96E40
:10026C00000E0120EA6EEECF04F0EECF05F015D0B3
:10027C0024C403F00F0E031603C000F0000E016E31
:10028C00003600900136700E0024E96E000E01203D
:10029C00EA6EEECF04F0EECF05F02151030A07E130
:1002AC0004C0E1FF05C0E2FF840EE66E43D024C417
:1002BC0000F00F0E0016700E026E0F0E036E005043
:1002CC000226D8B0032A02C0E9FF03C0EAFFFE0EE3
:1002DC00EE14006EEECF01F0FF0E011602C0E1FF2E
:1002EC0003C0E2FF00C0E6FF01C0E6FF24AF11D05F
:1002FC0004C0E1FF05C0E2FFE66A040E0418006EBC
:10030C0000C004F004C0E1FF05C0E2FF400EE66E41
:10031C0011D004C0E1FF05C0E2FF880EE66E040EAA
:10032C000418006E00C004F004C0E1FF05C0E2FF39
:06033C00C80EE66E12007F
:1003420004012051800AD8A475D0C00E5E6E67D019
:10035200C60E006E130E016E000E026E00C05BF040
:1003620001C05CF002C05DF0120E5F6E000E000173
:10037200606F60D0030E006E000E016E22C404F0A6
:10038200000E056EADDE4B0E0024E96E000E01205C
:10039200EA6EEECF5BF0EECF5CF0EECF5DF0020ED8
:1003A2005B24F66E000E5C20F76E000E5D20F86E88
:1003B2000900F5CF00F00900F5CF01F000C05FF0B1
:1003C20001C060F037D0040122510001775D23E3C0
:1003D200030E006E000E016E22C404F0000E056EC4
:1003E2007FDE3E0E0024E96E000E0120EA6EEECFA3
:1003F2005BF0EECF5CF0EECF5DF05BC0F6FF5CC071
:10040200F7FF5DC0F8FF0900F5CF00F000C05FF014
:10041200000E606F01D05E6A0DD05E6A0BD00401DF
:100422002351010A95E02351020AA4E02351030A51
:06043200CAE0F3D712003E
:100438005E8E716A00016F6B22C46EF06E51000A05
:1004480004E1100E0301FC6F04D00301200EFC6FC1
:04045800E1DD1200D0
:10045C0020C401F01F0E01160150010A01E091D0D9
:10046C0004012451000A01E08CD02151060A41E11B
:10047C0036D000016E51010A17E1560E006E130EB4
:10048C00016E000E026E120E0026000E01220222D8
:10049C0000C05BF001C05CF002C05DF0090E5F6E45
:1004AC00000E606FC00E5E6E24D000016E51010A0A
:1004BC0012E1A50E006E130E016E000E026E00C04E
:1004CC005BF001C05CF002C05DF0210E5F6E000EAF
:1004DC00606FC00E5E6E0DD0800E5E6E0AD0040191
:1004EC002351210AC6E02351220ADFE02351230ABB
:1004FC00F3E020C401F0600E0116050E006E0050F2
:10050C0004E00132019EFF0FFBD70150010A01E00C
:10051C0038D024D036D035D0530E5B6E000E5C6EC6
:10052C00010E5F6E000E0001606FC10E5E6E29D071
:10053C00800E5E6E23C453F024D00001540E5B6E0B
:10054C00000E5C6E010E5F6E000E606F810E5E6EB3
:10055C0018D0800E5E6E22C454F013D004012151C9
:10056C00010AD8E02151090AD6E02151020AD4E04F
:10057C0021510A0ADDE02151030ADFE021510B0A67
:04058C00E8E0120091
:10059000000E0001605D02E1080E5F5C10E25FC0CA
:1005A00003F060C004F02F50000A03E1010E2F6E2B
:1005B00005D02F50010A02E1020E2F6E04D0080E62
:1005C000036E000E046E70C0E1FF71C0E2FFE692A0
:1005D00070C0E1FF71C0E2FFE69070C0E9FF71C03A
:1005E000EAFFEECF00F070C0E1FF71C0E2FF0450FF
:1005F0000010E66E010E7025E16E000E7121E26EB4
:1006000003C0E6FF03505F5C006E04506059016E4A
:1006100000C05FF001C060F0280E386E040E396E25
:100620005EB02FD0035004102BE05BC0F6FF5CC01F
:10063000F7FF5DC0F8FF0900F5CF00F038C0E1FF1B
:1006400039C0E2FF00C0E6FF384A392A010E5B24B8
:10065000006E000E5C20016E000E5D20026E00C078
:100660005BF001C05CF002C05DF0010E035C006E47
:10067000000E0458016E00C003F001C004F0D2D790
:1006800024D00350041021E05BC0E9FF5CC0EAFF06
:1006900038C0E1FF39C0E2FFEECFE6FF384A392A21
:1006A000010E5B24006E000E5C20016E00C05BF04A
:1006B00001C05CF0010E035C006E000E0458016E78
:0C06C00000C003F001C004F0DCD7120001
:0A06CC00D08EA28AA08AF28E1200DE
:1006D600C60E006E130E016E000E026E0E0E002484
:1006E600F66E000E0120F76E000E0220F86E09006D
:1006F600F5CF03F003C004F00F0E0024F66E000ED3
:100706000120F76E000E0220F86E0900F5CF01F009
:100716000150035C12E2C60E006E130E016E000E4F
:10072600026E0F0E0024F66E000E0120F76E000E0C
:100736000220F86E0900F5CF04F0C60E006E130E07
:10074600016E000E026E100E0024F66E000E0120E1
:10075600F76E000E0220F86E0900F5CF01F0015089
:10076600045C12E2C60E006E130E016E000E026EDF
:10077600100E0024F66E000E0120F76E000E022009
:0E078600F86E0900F5CF04F004C000F0120078
:0A0794000301FF5301E060DE1200D4
:10079E00010E2A24E96E000E2B20EA6EEECF00F039
:1007AE0000C002F0000E0001695D02E10250685DBA
:1007BE0003E268C002F00AD00250685D006E000EBF
:1007CE006959016E00C068F001C069F0036A0250F9
:1007DE00035C1CE2280EE96E040EEA6E0350E92655
:1007EE00D8B0EA2AEECF00F065C0E1FF66C0E2FFA6
:1007FE0000C0E6FF010E6525006E000E6621016E3B
:10080E0000C065F001C066F0032AE1D7000E006E4D
:10081E006951005C02E16851000828E2010E2D24A6
:10082E00E16E000E2E20E26E080EE66E020E2D24F4
:10083E00E16E000E2E20E26E280EE66E040EE66EBF
:10084E002AC0E9FF2BC0EAFFEECF00F000BC07D0B4
:10085E002DC0E1FF2EC0E2FFC80EE66E06D02DC001
:10086E00E1FF2EC0E2FF880EE66E19D0010E2D2498
:10087E00E16E000E2E20E26E080EE66E020E2D24A4
:10088E00E16E000E2E20E26E200EE66E040EE66E77
:10089E002DC0E1FF2EC0E2FF840EE66E679F1200B0
:1008AE0020C401F0600E0116050E006E005004E02B
:1008BE000132019EFF0FFBD70150000A01E059D013
:1008CE0035D05E8E080E0301FC6F53D033DD51D050
:1008DE00ACDD4FD06E0E5B6E000E5C6E5E80010E58
:1008EE005F6E5E8E46D01EDC44D081DC42D06F0E31
:1008FE00006E000E016E24510026D8B0012A00C0F1
:10090E005BF001C05CF05E80010E5F6E5E8E31D0DA
:10091E005E8E6F0EE16E000EE26E2451E126D8B0AF
:10092E00E22A22C4E6FF25D024D023D0040121518F
:10093E00050AC7E02151060AC9E02151090AC8E09B
:10094E002151080AC7E02151000ACDE02151010AC8
:10095E00CCE02151030AC9E021510A0AC8E0215115
:10096E000B0AD6E02151070ADFE021510C0ADDE027
:04097E00DCD71200B0
:100982002C6A70C0E1FF71C0E2FFE66A040E00014A
:100992007019E16E71C0E2FF000EE21AE66A67AFFB
:0609A20001D0679F120066
:1009A8006D985EBE4AD0000167AF28D0020E2C6E4B
:1009B800010E7025E16E000E7121E26EE66A70C0CC
:1009C800E1FF71C0E2FFC80EE66E010E2D24E16E54
:1009D800000E2E20E26E080EE66E020E2D24E16E49
:1009E800000E2E20E26E280EE66E040EE66E2DC076
:1009F800E1FF2EC0E2FFC80EE66E1ED0010E2D24C8
:100A0800E16E000E2E20E26E080EE66E020E2D2418
:100A1800E16E000E2E20E26E200EE66E040EE66EEB
:100A28002DC0E1FF2EC0E2FF8C0EE66E70C0E1FF24
:100A380071C0E2FF840EE66E81D0000167BF7ED0F0
:100A4800040120AF53D0000160510401275D02E189
:100A58005F50265D04E226C45FF027C460F094DD91
:100A6800010E2C6E010E2D24E16E000E2E20E26E7A
:100A7800080EE66E020E2D24E16E000E2E20E26EA8
:100A8800200EE66E040EE66E2DC0E1FF2EC0E2FFDA
:100A9800800EE66E296A010E2A24E16E000E2B20D4
:100AA800E26E080EE66E020E2A24E16E000E2B207E
:100AB800E26E200EE66E040EE66E2AC0E1FF2BC041
:100AC800E2FF840EE66E010E296E020E7025E16EBD
:100AD800000E7121E26E280EE66E040EE66E70C0FE
:100AE800E1FF71C0E2FFC80EE66E28D00001020ED9
:100AF8002C6E010E7025E16E000E7121E26EE66A21
:100B080070C0E1FF71C0E2FFC80EE66E010E2D2431
:100B1800E16E000E2E20E26E080EE66E020E2D2407
:100B2800E16E000E2E20E26E280EE66E040EE66ED2
:0E0B38002DC0E1FF2EC0E2FFC80EE66E1200D7
:100B4600560E4B6E130E4C6E000E4D6ED80E3E6E4C
:100B5600130E3F6E000E406E7F0E416E130E426EF8
:100B6600000E436E2C0E446E130E456E000E466E3E
:020B760012006B
:100B780004013C6B3D6B3E6B020E3925F66E000E90
:100B88003A21F76E000E3B21F86E0900F5CF05F00B
:100B9800030E3925F66E000E3A21F76E000E3B2142
:100BA800F86E0900F5CF00F000C003F0000E046EE7
:100BB80003C001F0006A05500024066E000E0120F3
:100BC800076E39C408F03AC409F03BC40AF0010EB4
:100BD8000824F66E000E0920F76E000E0A20F86E43
:100BE8000900F5CF01F00150020A1BE1060E0824A6
:100BF800F66E000E0920F76E000E0A20F86E090046
:100C0800F5CF01F001503C5D0CE2060E0824F66EAB
:100C1800000E0920F76E000E0A20F86E0900F5CFC5
:100C28003CF4010E0824F66E000E0920F76E000E43
:100C38000A20F86E0900F5CF01F00150040A1BE103
:100C4800080E0824F66E000E0920F76E000E0A2022
:100C5800F86E0900F5CF01F001503C5D0CE2080E7A
:100C68000824F66E000E0920F76E000E0A20F86EB2
:100C78000900F5CF3CF408C0F6FF09C0F7FF0AC029
:100C8800F8FF0900F5CF00F000503D25016E000E79
:100C98003E21026E01C03DF402C03EF40750025CE2
:100CA80002E10650015C01E30FD008C0F6FF09C05D
:100CB800F7FF0AC0F8FF0900F5CF00F0005008263A
:0E0CC800000E09220A2283D73CC400F012005D
:0E0CD600160E6F6E9F0E6B6E3B0E696E120057
:100CE40070A019D02AC0E9FF2BC0EAFFEECF01F0B3
:100CF4000150800A0FE170C0E9FF71C0EAFFEECF36
:100D040001F00150840A06E12AC0E1FF2BC0E2FF92
:0C0D14008C0EE66E7090DF0E6816120068
:0A0D20006984EF0E68166D82120060
:100D2A0070C0E9FF71C0EAFFEECF00F000AE05D057
:100D3A0070C0E1FF71C0E2FFE66A2F6A2C6A5F6A3F
:0E0D4A000001606B5E6AAEDD20DD29DE120066
:100D58002C50020A02E11FDD1ED00FDE2950000AC6
:100D680019E1010E2D24E16E000E2E20E26E080E10
:100D7800E66E020E2D24E16E000E2E20E26E200E8D
:100D8800E66E040EE66E2DC0E1FF2EC0E2FF8C0E6B
:080D9800E66E01D0296A120089
:100DA000D2DE0001616B626B636B646B6A6A686AB6
:100DB00092DF6D8C6E6A716A6D9C596A5A6A000E78
:100DC0005A5C02E1080E595C17E259C000F05AC0A3
:100DD00001F0003600900136003600900136000E1A
:100DE0000024E16E040E0120E26EE66AE66AE66A1D
:100DF000E66A594A5A2AE3D7160E706E68A603D0DF
:100E0000F70E6816FBD75E6A676B686B696B6D9847
:100E1000080E706F040E716F6E6B0301FC6B120095
:100E20000301FC51000A0AE16D6A696A54DF4EDC75
:0E0E30006DB602D06D86FCD7010EFC6F12006D
:100E3E004BDC00C037F4560E0401396F130E3A6FB7
:100E4E00000E3B6F92DE00C038F43751005C03E2B7
:0C0E5E0037C400F002D038C400F01200CD
:100E6A00040E00017019006E00C070F00301FC51FD
:100E7A00080A0AE122C46EFF6E50000803E2100E4F
:100E8A00FC6F02D0040EFC6F2C50010A3CE1020EEA
:100E9A0000017025E16E000E7121E26E280EE66EE9
:100EAA00040EE66EC8EC02F02F50020A07E170C089
:100EBA00E1FF71C0E2FF840EE66E24D0040E7019C1
:100ECA00006E00C070F070C0E9FF71C0EAFFEECF9B
:100EDA0000F000BC0CD0040E7019006E00C070F057
:100EEA0070C0E1FF71C0E2FFC80EE66E0BD0040EBF
:100EFA007019006E00C070F070C0E1FF71C0E2FFAF
:0A0F0A00880EE66E01D038DD1200FB
:040F1400A19A12008C
:100F18006D92699468A403D0FB0E6816FBD7120083
:100F28000900F5CFE6FF0006FBE10106F9E1120032
:100F3800D08EF28CF1949F9AF294F28AF28E12007B
:100F48000F0EC16E070EB46ED58CD59AD596D58482
:0C0F5800D592D580D76AD66AD58E1200DB
:100F6400806A816A826A8B94949489909290120028
:100F7400FF0E3A6EFF0E3B6EFF0E3C6EFF0E3D6E93
:100F8400FF0E306EFF0E316E000E326E000E336EA9
:100F9400FF0E346EFF0E356E000E366E000E376E89
:100FA400FF0E556EFF0E566E000E576E000E586EF5
:100FB400AC8A900EAB6E948E949C9EAA03D0AECF56
:060FC40000F0FBD7120053
:100FCA000301FC51010A07E16DBA05D0686A69801C
:100FDA006988020EFC6F68A405D069A403D0FB0ED1
:100FEA00681695DF6DA202D090DFD8D068A018D01D
:100FFA0069A016D0D0DE040EFC6F200E0401026F29
:10100A00040E036F080E016F000E0015006E00C07B
:10101A0000F48C0E0011006E00C000F4FE0E68167B
:10102A0068A805D069A803D076DEEF0E681668AC0A
:10103A0004D069AC02D0BF0E681668AA03D069AAA8
:10104A0001D04BDE68A202D069B26A6A040E0301BB
:10105A00FC5D02E25ADFA2D069A69FD00401406B70
:10106A00040E405DD8B099D068A693D06CCF74F0C6
:10107A00F70E6816780E00017415016E0150000A09
:10108A00D8A486D0FD0E7415016E026AFF0E0216F0
:10109A00000E021802E1000E01186CE17E0E7415B2
:1010AA00016E01C003F00332039E03C000F0000E7C
:1010BA00016E003600900136003600900136000EAF
:1010CA000024026E040E0120036E02C02AF003C03F
:1010DA002BF002C02DF003C02EF0040E2D18006E66
:1010EA0000C02DF002C0E9FF03C0EAFFEECF00F016
:1010FA0000C001F03C0E01160132019E0132019E30
:10110A0001500D0A35E1020E2A24E96E000E2B2049
:10111A00EA6EEECF01F0EECF02F00250040A02E1CD
:10112A00280E011823E1020E2A24E16E000E2B205C
:10113A00E26E200EE66E040EE66E04013F6B080EA8
:10114A003F5D14E2200EE16E040EE26E3F51E1268D
:10115A00D8B0E22A280EE96E040EEA6E3F51E9265B
:10116A00D8B0EA2AEECFE6FF3F2BE9D7D9DD01D086
:10117A00EEDD0DD0FD0E7415016E026AFF0E021629
:10118A00000E021802E1040E011801E169DE00D026
:0E119A0001D003D00401402B63D7B7DE120052
:1011A8004ADE00C077F0010E0301FF6F33C430F44C
:1011B80034C431F435C475F036C476F0EDDD010E73
:0C11C800016E0150010A01E127DE120057
:1011D400276A286A0401326BC3DEB4DEABDE8B847B
:1011E400B886030EB06E400EAF6EAC84C1DE000E46
:1011F4000401336F050E346F400E356F050E366FE4
:10120400D1DF8980020E0C6E080E0D6E0D2EFED7F6
:101214000C2EFCD700008990020E0C6E080E0D6E89
:0E1224000D2EFED70C2EFCD70000EBD7FFD707
:10123200156ED8CF16F0E0CF17F0F2AA07D0F2A4BD
:1012420005D0830ED66E274A282AF2949DAA28D06A
:101252009EAA26D0E9CFFDF3EACFFEF3780E47240B
:10126200E96E000E4820EA6EABA202D0AB98AB88C2
:10127200AECFEFFFEC6A474A482A200E4A6E4A5226
:1012820005E09EAA01D002D04A06F9D74A5201E1EE
:1012920001D0EED7FDC3E9FFFEC3EAFFFF0E496EA0
:0E12A2001750E06E1650D86E153A1538100031
:1012B00000C020F001C01FF002C01EF003C01DF0EE
:1012C00004C01CF005C01BF008C01AF009C019F0DA
:1012D0000AC018F0E1CF25F0E2CF26F0F5CF24F0D8
:1012E000F8CF21F0F7CF22F0F6CF23F06EDE24C046
:1012F000F5FF21C0F8FF22C0F7FF23C0F6FF20C092
:1013000000F01FC001F01EC002F01DC003F01CC0A1
:1013100004F01BC005F01AC008F019C009F018C08D
:0C1320000AF025C0E1FF26C0E2FF11002A
:10132C002A03480049004400200074006F0020008C
:10133C00530065007200690061006C0020004D00D4
:0A134C006F00640075006C0065007E
:10135600090229000101008032090400000203008D
:101366000000092101010001222100070581034037
:091376000001070501034000011C
:10137F00260349004E004600520041002000540051
:10138F006500630068006E006F006C006F006700FF
:06139F0069006500730007
:1013A5000600FF0901A10119012940150026FF00CA
:1013B50075089540810219012940750895409102EB
:0113C500C067
:1013C6001201000200000008BD1F1000010001020A
:0213D600000114
:0413D80004030904FD
:020000040030CA
:0E0000002C0E3E1EFF0081FF00800FE00F401F
:00000001FF
