:1000000088EF0FF00000000036EF0FF00000000056
:0C001000000000000000000048EF10F0AD
:10001C001E0E716E100E04015C6F040E5D6F5CC4DD
:10002C00E1FF5DC4E2FFE69E5CC4E1FF5DC4E2FF5C
:10003C00E69C040E5C25E16E000E5D21E26EE68C02
:10004C00180E316E040E326E31C0E1FF32C0E2FF89
:10005C00E69E31C0E1FF32C0E2FFE69C040E312483
:10006C00E16E000E3220E26EE68C020E5C25E16E33
:10007C00000E5D21E26E62C4E6FF63C4E6FF010E72
:10008C005C25E16E000E5D21E26E400EE66E5CC4F6
:10009C00E9FF5DC4EAFFEECF00F05CC4E1FF5DC494
:1000AC00E2FF400E0014E66E5CC4E9FF5DC4EAFF9B
:1000BC00EECF00F05CC4E1FF5DC4E2FF880E0010DF
:1000CC00E66E5CC464F45DC465F4040E5C19006EE9
:0600DC0000C05CF41200FC
:1000E2000B6A0A6A096A00500402F4CF09F0F3CFDE
:1000F20008F001500502F4CF0BF0F3CF0AF00050E4
:100102000502F3500926F4500A22E86A0B22015034
:100112000402F3500926F4500A22E86A0B2208C0AE
:1001220000F009C001F00AC002F00BC003F0120097
:100132003A8E716A0401576B22C45EF45E51000A62
:1001420003E1100E676F03D0200E676F66DF1200A7
:100152000401286B296B42D03A8E28816051010A32
:10016200D8B4288350D03A8E4ED03A8E24BF16D0BF
:1001720024C403F00F0E031603C000F0000E016E3C
:100182000036009001365A0E0024E96E040E01205A
:10019200EA6EEECF04F0EECF05F015D024C403F0E2
:1001A2000F0E031603C000F0000E016E0036009021
:1001B20001362F0E0024E96E000E0120EA6EEECF0A
:1001C20004F0EECF05F004C0E9FF05C0EAFFEECF70
:1001D20001F001A402D0010E286F15D020C401F055
:1001E2001F0E01160150000AB7E020C401F01F0ED5
:1001F20001160150010AB7E020C401F01F0E0116DA
:100202000150020AB2E03AAE07D0280E376E040E51
:0A021200386E3A80020E3B6E1200B7
:10021C0004012051800AD8A471D0C00E3A6E64D06B
:10022C00DA0E006E220E016E000E026E00C037F068
:10023C0001C038F002C039F0120E3B6E000E3C6E5D
:10024C005DD0030E006E000E016E22C404F0000E91
:10025C00056E41DF300E0024E96E040E0120EA6EBB
:10026C00EECF37F0EECF38F0EECF39F0020E372468
:10027C00F66E000E3820F76E000E3920F86E09006D
:10028C00F5CF00F00900F5CF01F000C03BF001C044
:10029C003CF034D022514B5D23E3030E006E000E74
:1002AC00016E22C404F0000E056E15DF3B0E002417
:1002BC00E96E040E0120EA6EEECF37F0EECF38F087
:1002CC00EECF39F037C0F6FF38C0F7FF39C0F8FF72
:1002DC000900F5CF00F000C03BF0000E3C6E01D0E1
:1002EC003A6A0CD03A6A0AD02351010A99E0235198
:0E02FC00020AA7E02351030ACDE0F4D7120056
:10030A0020C401F01F0E01160150010A01E08BD032
:10031A0004012451000A01E086D02151060A3EE177
:10032A0034D05E51010A17E13A0E006E210E016EB9
:10033A00000E026E120E0026000E0122022200C0DA
:10034A0037F001C038F002C039F0090E3B6E000EDA
:10035A003C6EC00E3A6E22D05E51010A12E1890E3D
:10036A00006E210E016E000E026E00C037F001C051
:10037A0038F002C039F0210E3B6E000E3C6EC00E02
:10038A003A6E0CD0800E3A6E09D02351210AC9E088
:10039A002351220AE1E02351230AF4E020C401F0A8
:1003AA00600E0116050E006E005004E00132019E37
:1003BA00FF0FFBD70150010A01E035D022D033D01C
:1003CA0032D0610E376E040E386E010E3B6E000E8F
:1003DA003C6EC10E3A6E27D0800E3A6E23C461F489
:1003EA0022D0660E376E040E386E010E3B6E000E7A
:1003FA003C6E810E3A6E17D0800E3A6E22C466F4B5
:10040A0012D02151010ADBE02151090AD9E0215118
:10041A00020AD7E021510A0ADFE02151030AE1E08A
:08042A0021510B0AE9E0120068
:1004320004012251010A0FE120C401F01F0E01162E
:100442000150000A08E13A8E2151030A03E1010E2C
:10045200606F01D0606B2251000AD8A48BD020C4F7
:1004620001F01F0E01160150020AD8A483D024C441
:1004720001F00F0E01160150000AD8B47BD03A8E5B
:1004820024BF16D024C403F00F0E031603C000F0DD
:10049200000E016E0036009001365A0E0024E96EFD
:1004A200040E0120EA6EEECF04F0EECF05F015D077
:1004B20024C403F00F0E031603C000F0000E016EF9
:1004C2000036009001362F0E0024E96E000E012046
:1004D200EA6EEECF04F0EECF05F02151030A07E1F8
:1004E20004C0E1FF05C0E2FF840EE66E43D024C4DF
:1004F20000F00F0E0016700E026E0F0E036E00500B
:100502000226D8B0032A02C0E9FF03C0EAFFFE0EAA
:10051200EE14006EEECF01F0FF0E011602C0E1FFF5
:1005220003C0E2FF00C0E6FF01C0E6FF24AF11D026
:1005320004C0E1FF05C0E2FFE66A040E0418006E83
:1005420000C004F004C0E1FF05C0E2FF400EE66E09
:1005520011D004C0E1FF05C0E2FF880EE66E040E72
:100562000418006E00C004F004C0E1FF05C0E2FF01
:06057200C80EE66E120047
:10057800000E3C5C02E1080E3B5C10E23BC003F05D
:100588003CC004F02E50000A03E1010E2E6E05D087
:100598002E50010A02E1020E2E6E04D0080E036EE0
:1005A800000E046E2FC0E1FF30C0E2FFE6922FC0BC
:1005B800E1FF30C0E2FFE6902FC0E9FF30C0EAFF5C
:1005C800EECF00F02FC0E1FF30C0E2FF0450001072
:1005D800E66E010E2F24E16E000E3020E26E03C09D
:1005E800E6FF03503B5C006E04503C58016E00C0AF
:1005F8003BF001C03CF0280E3D6E040E3E6E3AB052
:100608002FD0035004102BE037C0F6FF38C0F7FF97
:1006180039C0F8FF0900F5CF00F03DC0E1FF3EC04A
:10062800E2FF00C0E6FF3D4A3E2A010E3724006E75
:10063800000E3820016E000E3920026E00C037F01F
:1006480001C038F002C039F0010E035C006E000EE4
:100658000458016E00C003F001C004F0D2D724D0C2
:100668000350041021E037C0E9FF38C0EAFF3DC05D
:10067800E1FF3EC0E2FFEECFE6FF3D4A3E2A010E13
:100688003724006E000E3820016E00C037F001C01C
:1006980038F0010E035C006E000E0458016E00C0B5
:0A06A80003F001C004F0DCD71200DB
:1006B200010E04014825E96E000E4921EA6EEECFD3
:1006C20000F000C002F0000E465C02E10250455C00
:1006D20003E245C002F00AD00250455C006E000EF3
:1006E2004658016E00C045F001C046F0036A025050
:1006F200035C1CE2280EE96E040EEA6E0350E92642
:10070200D8B0EA2AEECF00F042C0E1FF43C0E2FFD8
:1007120000C0E6FF010E4224006E000E4320016E6F
:1007220000C042F001C043F0032AE1D7000E006E80
:100732004650005C02E14550000828E2010E3F24C9
:10074200E16E000E4020E26E080EE66E020E3F24BD
:10075200E16E000E4020E26E280EE66E040EE66E9A
:1007620048C4E9FF49C4EAFFEECF00F000BC07D05D
:100772003FC0E1FF40C0E2FFC80EE66E06D03FC0B8
:10078200E1FF40C0E2FF880EE66E19D0010E3F2461
:10079200E16E000E4020E26E080EE66E020E3F246D
:1007A200E16E000E4020E26E200EE66E040EE66E52
:1007B2003FC0E1FF40C0E2FF840EE66E449E12009D
:0A07C20004015F5301E0A0DD120006
:1007CC006D983ABE49D044AE28D0020E4B6E010E45
:1007DC002F24E16E000E3020E26EE66A2FC0E1FF9E
:1007EC0030C0E2FFC80EE66E010E3F24E16E000E33
:1007FC004020E26E080EE66E020E3F24E16E000E03
:10080C004020E26E280EE66E040EE66E3FC0E1FF5D
:10081C0040C0E2FFC80EE66E1ED0010E3F24E16E12
:10082C00000E4020E26E080EE66E020E3F24E16ED2
:10083C00000E4020E26E200EE66E040EE66E3FC007
:10084C00E1FF40C0E2FF8C0EE66E2FC0E1FF30C02E
:10085C00E2FF840EE66E7ED044BE7CD0040120AF55
:10086C0052D03C50275D02E13B50265D04E226C489
:10087C003BF027C43CF07ADE010E4B6E010E3F2498
:10088C00E16E000E4020E26E080EE66E020E3F2472
:10089C00E16E000E4020E26E200EE66E040EE66E57
:1008AC003FC0E1FF40C0E2FF800EE66E416A010EE0
:1008BC0004014825E16E000E4921E26E080EE66E39
:1008CC00020E4825E16E000E4921E26E200EE66E06
:1008DC00040EE66E48C4E1FF49C4E2FF840EE66EE6
:1008EC00010E416E020E2F24E16E000E3020E26EDE
:1008FC00280EE66E040EE66E2FC0E1FF30C0E2FF5C
:10090C00C80EE66E27D0020E4B6E010E2F24E16E40
:10091C00000E3020E26EE66A2FC0E1FF30C0E2FF2D
:10092C00C80EE66E010E3F24E16E000E4020E26E12
:10093C00080EE66E020E3F24E16E000E4020E26EC1
:10094C00280EE66E040EE66E3FC0E1FF40C0E2FFEB
:06095C00C80EE66E120059
:100962004B6A2FC0E1FF30C0E2FFE66A040E2F1887
:10097200E16E30C0E2FF000EE21AE66A44BE449E17
:02098200120061
:1009840020C401F0600E0116050E006E005004E054
:100994000132019EFF0FFBD70150000A01E05BD03A
:1009A40037D03A8E080E0401676F55D035DC53D02A
:1009B40099EC00F050D05E0E376E040E386E3A801B
:1009C400010E3B6E3A8E47D0A9EC00F044D02FDDE7
:1009D40042D0570E006E040E016E24510026D8B08A
:1009E400012A00C037F001C038F03A80010E3B6E96
:1009F4003A8E31D03A8E570EE16E040EE26E2451D7
:100A0400E126D8B0E22A22C4E6FF25D024D023D0A0
:100A140004012151050AC5E02151060AC7E021510C
:100A2400090AC6E02151080AC6E02151000ACCE0B7
:100A34002151010ACCE02151030AC9E021510A0ADB
:100A4400C8E021510B0AD6E02151070ADFE0215109
:080A54000C0ADDE0DCD7120002
:100A5C003A0E0401306F210E316F000E326FF50E1D
:100A6C003B6F220E3C6F000E3D6F630E3E6F210EEE
:100A7C003F6F000E406F100E416F210E426F000E43
:040A8C00436F1200A2
:0E0A9000160E6F6E9F0E6B6E3B0E696E12009F
:100A9E0070A019D048C4E9FF49C4EAFFEECF01F0B7
:100AAE000150800A0FE12FC0E9FF30C0EAFFEECF00
:100ABE0001F00150840A06E148C4E1FF49C4E2FF97
:0C0ACE008C0EE66E7090DF0E68161200B1
:0A0ADA006984EF0E68166D821200A9
:100AE4004B50020A02E1E3DD1ED039DF4150000A17
:100AF40019E1010E3F24E16E000E4020E26E080E63
:100B0400E66E020E3F24E16E000E4020E26E200EDF
:100B1400E66E040EE66E3FC0E1FF40C0E2FF8C0EBD
:080B2400E66E01D0416A1200E7
:100B2C00040E2F18006E00C02FF004016751080A44
:100B3C000AE122C46EFF6E50000803E2100E676FCC
:100B4C0002D0040E676F4B50010A3AE1020E2F24BB
:100B5C00E16E000E3020E26E280EE66E040EE66E9C
:100B6C0005DD2E50020A07E12FC0E1FF30C0E2FF85
:100B7C00840EE66E24D0040E2F18006E00C02FF0E9
:100B8C002FC0E9FF30C0EAFFEECF00F000BC0CD064
:100B9C00040E2F18006E00C02FF02FC0E1FF30C0E4
:100BAC00E2FFC80EE66E0BD0040E2F18006E00C0CC
:100BBC002FF02FC0E1FF30C0E2FF880EE66E01D0AF
:040BCC00CADE12006B
:100BD0002FC0E9FF30C0EAFFEECF00F000AE05D035
:100BE0002FC0E1FF30C0E2FFE66A2E6A4B6A3B6A23
:0C0BF0003C6A3A6AC7DEE5DDE9DD120070
:100BFC002FDF646B656B4C6B4D6B6A6A686A42DF06
:100C0C006D8C6E6A716A6D9C586B596B000E595DD8
:100C1C0002E1080E585D17E258C400F059C401F007
:100C2C00003600900136003600900136000E00248C
:100C3C00E16E040E0120E26EE66AE66AE66AE66A96
:100C4C00584B592BE3D7160E706E68A603D0F70ECF
:100C5C006816FBD73A6A446A456A466A6D98080E6C
:0C0C6C002F6E040E306E5E6B676B120082
:100C78006D92699468A403D0FB0E6816FBD7120026
:040C8800A19A12001B
:100C8C00000E0401811902E1000E801902E1016AD3
:100C9C000AD080C4E9FF81C4EAFFEECF00F0000E59
:0C0CAC0000BE010E016E01C000F012003D
:100CB80004016751000A0AE16D6A696AE5DE6DB6EA
:100CC80002D06D86FCD70401010E676F6751010AD7
:100CD80008E16DBA06D0686A696A69806988020E97
:100CE800676F68A405D069A403D0FB0E6816C0DF3F
:100CF8006DA202D0C5DFD5D068A017D069A015D0E5
:100D080079DF040E676F200E026F040E036F080E62
:100D1800016F000E0015006E00C000F48C0E00116B
:100D2800006E00C000F4FE0E681668A805D069A819
:100D380003D0CFDEEF0E681668AC04D069AC02D0E1
:100D4800BF0E681668AA03D069AA01D0A4DE68A2FB
:100D580002D069B26A6A040E0401675D02E290DF9C
:100D6800A0D069A69DD0816B040E815DD8B098D0C3
:100D780068A692D06CCF4AF4F70E6816780E4A151A
:100D8800016E0150000AD8A486D0FD0E4A15016EE6
:100D9800026AFF0E0216000E021802E1000E011888
:100DA8006BE17E0E4A15016E01C003F00332039E0B
:100DB80003C000F0000E016E0036009001360036C8
:100DC80000900136000E0024026E040E0120036E0E
:100DD80002C048F403C049F402C03FF003C040F029
:100DE800040E3F18006E00C03FF002C0E9FF03C0C8
:100DF800EAFFEECF00F000C001F03C0E0116013210
:100E0800019E0132019E01500D0A34E1020E48256F
:100E1800E96E000E4921EA6EEECF01F0EECF02F046
:100E28000250040A02E1280E011822E1020E4825A8
:100E3800E16E000E4921E26E200EE66E040EE66EAB
:100E4800806B080E805D14E2200EE16E040EE26EE7
:100E58008051E126D8B0E22A280EE96E040EEA6E27
:100E68008051E926D8B0EA2AEECFE6FF802BE9D7F1
:100E7800ABDE01D033DE0ED0FD0E04014A15016E43
:100E8800026AFF0E0216000E021802E1040E011893
:100E980001E148DE00D001D003D00401812B64D7E2
:040EA800EFDE120067
:100EAC0004018151000A12E080C400F0000E016EB2
:100EBC000036009001362F0E0024E96E000E012042
:100ECC00EA6EEECF04F0EECF05F011D080C400F046
:100EDC00000E016E0036009001365A0E0024E96EA9
:100EEC00040E0120EA6EEECF04F0EECF05F0020EF8
:100EFC000424E16E000E0520E26E82C4E6FF83C47A
:100F0C00E6FF010E0424E16E000E0520E26E84C49F
:100F1C00E6FF04C0E9FF05C0EAFFEECF00F004C015
:100F2C00E1FF05C0E2FF400E0014E66E04C0E9FFCD
:100F3C0005C0EAFFEECF00F004C0E1FF05C0E2FF00
:100F4C00880E0010E66E8151000A1BE080C400F090
:100F5C00000E016E0036009001362F0E0024026E3A
:100F6C00000E0120036E02C0E9FF03C0EAFF040E6D
:100F7C00EE18006E02C0E1FF03C0E2FF00C0E6FF06
:100F8C001AD080C400F0000E016E003600900136BD
:100F9C005A0E0024026E040E0120036E02C0E9FFFB
:100FAC0003C0EAFF040EEE18006E02C0E1FF03C09E
:100FBC00E2FF00C0E6FF04C000F005C001F0120023
:100FCC00200E0401675D03E36DB201D002D0006A0C
:100FDC0046D04CC480F44DC481F452DE00523EE144
:100FEC007CC480F4010E816F79C482F47AC483F4DA
:100FFC007BC484F455DF00C04CF401C04DF44E6B3F
:10100C004F6B506B516B4CC480F44DC481F438DE83
:10101C0000520FE0010E016E0150000A01E146DEA4
:10102C0004014E514F115011511102E0006A17D0BA
:10103C00EAD74CC47DF44DC47EF4000E4D1902E188
:10104C00000E4C1909E0010E7D25E96E000E7E2183
:10105C00EA6EEECF00F003D0006A01D0006A1200F5
:10106C0004017F6B200E675D03E36DB201D002D0EB
:10107C00006A2DD064C480F465C481F401DE005292
:10108C0025E164C47DF465C47EF4000E651902E1AB
:10109C00000E64190AE0010E7D25E96E000E7E211A
:1010AC00EA6EEECF00F000C07FF47CC480F4816B5C
:1010BC0079C482F47AC483F47BC484F4F1DE00C076
:1010CC0064F401C065F47FC400F001D0006A120022
:0A10DC00D08EA28AA08AF28E1200C4
:0C10E600ACB201D0FDD773C4ADFF120006
:1010F2000401766B776B786B020E7325F66E000E29
:101102007421F76E000E7521F86E0900F5CF05F017
:10111200030E7325F66E000E7421F76E000E752114
:10112200F86E0900F5CF00F000C003F0000E046E67
:1011320003C001F0006A05500024066E000E012073
:10114200076E73C408F074C409F075C40AF0010E86
:101152000824F66E000E0920F76E000E0A20F86EC3
:101162000900F5CF01F00150020A1BE1060E082426
:10117200F66E000E0920F76E000E0A20F86E0900C6
:10118200F5CF01F00150765D0CE2060E0824F66EF2
:10119200000E0920F76E000E0A20F86E0900F5CF46
:1011A20076F4010E0824F66E000E0920F76E000E8A
:1011B2000A20F86E0900F5CF01F00150040A1BE184
:1011C200080E0824F66E000E0920F76E000E0A20A3
:1011D200F86E0900F5CF01F00150765D0CE2080EC1
:1011E2000824F66E000E0920F76E000E0A20F86E33
:1011F2000900F5CF76F408C0F6FF09C0F7FF0AC070
:10120200F8FF0900F5CF00F000507725016E000EBF
:101212007821026E01C077F402C078F40750025CB4
:1012220002E10650015C01E30FD008C0F6FF09C0DD
:10123200F7FF0AC0F8FF0900F5CF00F000500826BA
:0E124200000E09220A2283D776C400F01200A3
:101250000B0E0C6E620E0D6E0D2EFED70C2EFCD7F3
:041260000000120078
:10126400086A096A100E0C6E0134083609360450F7
:10127400085E0550D8A0053C095ED8B007D00450DC
:1012840008260550D8B0053C0926D890003601360A
:061294000C2EEAD7120047
:10129A0073C479F474C47AF475C47BF4010E04013E
:0612AA007C6F8FDE1200D4
:1012B000DA0E006E220E016E000E026E0E0E00247B
:1012C000F66E000E0120F76E000E0220F86E090087
:1012D000F5CF03F003C004F00F0E0024F66E000EED
:1012E0000120F76E000E0220F86E0900F5CF01F024
:1012F0000150035C12E2DA0E006E220E016E000E47
:10130000026E0F0E0024F66E000E0120F76E000E26
:101310000220F86E0900F5CF04F0DA0E006E220EFE
:10132000016E000E026E100E0024F66E000E0120FB
:10133000F76E000E0220F86E0900F5CF01F00150A3
:10134000045C12E2DA0E006E220E016E000E026ED6
:10135000100E0024F66E000E0120F76E000E022023
:0E136000F86E0900F5CF04F004C000F0120092
:10136E00016A400E015C0BE2400EE16E050EE26E6C
:10137E000150E126D8B0E22AE66A012AF2D712001D
:10138E0075C404F076C405F073C402F074C403F09F
:10139E0077C400F078C401F0010E0401775F000EEF
:1013AE00785B005001100FE004C0E9FF05C0EAFFB2
:1013BE0002C0E1FF03C0E2FFEECFE6FF024A032ABE
:1013CE00044A052AE5D773C400F074C401F0120074
:1013DE0062C479F463C47AF4400E04017B6F010E8B
:0613EE007C6F3DDE1200E1
:1013F4006FC4F6FF70C4F7FF71C4F8FF0900F5CF9E
:1014040000F06DC4E1FF6EC4E2FF00C0E6FF6DC4EE
:10141400E9FF6EC4EAFFEE50000A01E109D00401BD
:101424006D4B6E2B010E6F27000E70237123E0D7D6
:021434001200A4
:10143600AECF4CF04C6A9D8A4F6A4D6A4E6A1200D6
:1014460004016D6B0501015104016D5D0EE2060E8E
:10145600E96E050EEA6E6D51E926D8B0EA2AEECF9E
:1014660073F43EDE04016D2BEDD77EDF030E05011E
:10147600406F05C541F5400E0401736F050E746F8C
:0E148600400E756F07DF005201E1F5D712002E
:101494000DDF00C06DF43A0E0401736F210E746FFA
:1014A400000E756F24DE00C06EF46D51005C03E223
:0C14B4006DC400F002D06EC400F0120005
:1014C00004016751000A0BE16D6A696A48EC05F096
:1014D00005DE6DB602D06D86FCD7010E676F120077
:1014E0000401716B726B7051725D02E16F51715D3D
:1014F00014E2000E006E6E51005C02E16D510008B6
:1015000008E26E514E5C02E16D514D5C02E3006AEF
:1015100011D09EDE714B722BE6D7000E006E4E503E
:10152000005C02E14D50000803E2020E006E02D0A2
:06153000010E006E120026
:041536009D9A120068
:10153A003B0E04016E6F3B0E046E000E056E4DC02D
:10154A0000F04EC001F089DE00C06FF43B0E046E5D
:10155A00000E056E4DC000F04EC001F07EDE08C0E0
:10156A0000F009C001F000C070F46F51000A01E1F7
:10157A0032D0F8DE040E0501406F6EC441F5040155
:10158A006D516F5D006E000600C042F570C443F5F0
:10159A001A0E0501446F04016E516D03F3CF00F07A
:1015AA00F4CF01F0450E736F050E746F4F0E0024D1
:1015BA00756F000E0120766F41C577F4000E786FC3
:1015CA00E1DE400E736F050E746F400E756F60DEBC
:0815DA00005201E1F6D71200F6
:1015E200C5DE040E0501406F416B426B436B446BD9
:1015F200400E0401736F050E746F400E756F4CDE62
:08160200005201E1F5D71200CE
:10160A00880E04016D6F130E6E6FE4DE00520FE157
:10161A00010E6D5F000E6E5B000E6E1902E1000E88
:10162A006D1903E1010E006E03D00DDEEED7006ADC
:02163A0012009C
:10163C00880E04016E6F130E6F6FCBDE00520FE13C
:10164C00010E6E5F000E6F5B000E6F1902E1000E53
:10165C006E1903E1010E006E11D0F4DDEED7050119
:10166C000051060A09E1015104016D1902E1006AF9
:0E167C0005D0020E006E02D0030E006E1200AA
:10168A00FF0E0401446FFF0E456FFF0E466FFF0EFB
:10169A00476FFF0E336FFF0E346F000E356F000E6B
:1016AA00366FFF0E376FFF0E386F000E396F000E60
:1016BA003A6FFF0E336EFF0E346E000E356E000E5B
:1016CA00366EAC8A900EAB6E948E949C9EAA03D012
:0816DA00AECF00F0FBD71200B7
:1016E20004016F51000A01E13CD03B0E6E6F3B0ECC
:1016F200046E000E056E4DC000F04EC001F0B1DD6B
:1017020008C000F009C001F000C06FF42FDE040E23
:101712000501406F6FC441F5426B6FC443F51A0E69
:10172200446F04016E516D03F3CF00F0F4CF01F06A
:10173200450E736F050E746F4F0E0024756F000E09
:101742000120766F41C577F4000E786F1FDE400EE0
:10175200736F050E746F400E756F9EDD005201E1CE
:04176200F6D71200A4
:101766000F0EC16E070EB46ED58CD59AD596D5845C
:0C177600D592D580D76AD66AD58E1200B5
:1017820088DE00C04BF4010E5F6F69C462F46AC464
:1017920063F46BC452F46CC453F4FEEC05F0010E16
:0C17A200016E0150010A01E18ADE120014
:0C17AE00806A816A826A8B949494120015
:1017BA0004016751010A07E16DBA05D0686A6980B8
:1017CA006988020E676F68A406D069A404D0FB0E6C
:1017DA0068163CEC06F06DA203D044EC06F0DDD0AE
:1017EA0068A018D069A016D0FEEC05F0040E676F49
:1017FA00200E026F040E036F080E016F000E001513
:10180A00006E00C000F48C0E0011006E00C000F4DF
:10181A00FE0E681668A806D069A804D06DEC05F01B
:10182A00EF0E681668AC04D069AC02D0BF0E681619
:10183A0068AA04D069AA02D04FEC05F068A202D0C7
:10184A0069B26A6A040E0401675D03E244EC06F0B9
:10185A00A4D069A6A0D0866B040E865DD8B09BD0B2
:10186A0068A695D06CCF4AF4F70E6816780E4A151A
:10187A00016E0150000AD8A489D0FD0E4A15016EE6
:10188A00026AFF0E0216000E021802E1000E01188B
:10189A006DE17E0E4A15016E01C003F00332039E0C
:1018AA0003C000F0000E016E0036009001360036CB
:1018BA0000900136000E0024026E040E0120036E11
:1018CA0002C048F403C049F402C03FF003C040F02C
:1018DA00040E3F18006E00C03FF002C0E9FF03C0CB
:1018EA00EAFFEECF00F000C001F03C0E0116013213
:1018FA00019E0132019E01500D0A35E1020E482572
:10190A00E96E000E4921EA6EEECF01F0EECF02F049
:10191A000250040A02E1280E011822E1020E4825AB
:10192A00E16E000E4921E26E200EE66E040EE66EAE
:10193A00856B080E855D14E2200EE16E040EE26EE0
:10194A008551E126D8B0E22A280EE96E040EEA6E25
:10195A008551E926D8B0EA2AEECFE6FF852BE9D7EA
:10196A00E8EC05F002D072EC05F00FD0FD0E040190
:10197A004A15016E026AFF0E0216000E021802E1F3
:10198A00040E011802E196EC05F000D001D003D054
:0C199A000401862B61D744EC06F012001B
:1019A6000900F5CFE6FF0006FBE10106F9E11200AA
:1019B600D08EF28CF1949F9AF294F28AF28E1200F3
:1019C600000E006E05010451005C02E1035100089F
:1019D60001E22EDD0401696B050101510401695D17
:1019E6000FE2050EE96E050EEA6E6951E926D8B0DA
:1019F600EA2AEECF73F473EC08F00401692BECD7F6
:101A0600000E0501041902E1000E031901E13ED0A2
:101A160002C56DF4000E04016E6F03C56FF404C5B4
:101A260070F45BDD00C06AF483DD9EDC020E050106
:101A3600406F04016A51000A10E102C541F5420EE9
:101A4600736F050E746F4F0E756F000E766F02C5BD
:101A560077F4000E786F98DC0FD04DC041F5420E3A
:101A6600736F050E746F4F0E756F000E766F4DC057
:101A760077F44EC078F488DC400E736F050E746FF1
:0E1A8600400E756F07DC005201E1F6D712002A
:101A9400D8DC000E006E05010351005C02E1025126
:101AA40000081DE2B0DD0050000A12E05EDC030E07
:101AB4000501406F416B400E0401736F050E746F96
:101AC400400E756F4DEC09F0005201E1F4D707D0D8
:101AD40005010051030A01E002D0B3DCDAD7120099
:101AE4000401696B050101510401695D0FE2020EF5
:101AF400E96E050EEA6E6951E926D8B0EA2AEECFFE
:0E1B040073F473EC08F00401692BECD71200A7
:101B12000401696B6A6B6B6B0DDD000E4E1802E1FE
:101B2200000E4D1802E15CDD37D004013B0E046E5D
:101B3200000E056E4DC000F04EC001F032EC09F00F
:101B420000C06AF4696B6A51695D23E269C46DF48D
:101B5200F3DC44C56DF471DD00C06BF40050030A80
:101B620001E1DAD704016B51000A11E0040E05010C
:101B7200406F446B400E0401736F050E746F400E8C
:101B8200756F4DEC09F0005201E1F4D705D0692BD5
:0A1B9200DAD76AC46DF4A4DD120076
:101B9C00B7EC09F0050E0501406F0401695303E031
:101BAC0001C541F502D04DC041F5420E736F050ED3
:101BBC00746F4F0E756F000E766F41C577F4000E83
:101BCC00786FC7EC09F0400E736F050E746F400E02
:0E1BDC00756F4DEC09F0005201E1F5D71200D3
:101BEA00B7EC09F0060E0501406F410E04016D6F56
:101BFA00050E6E6FEC0E6F6F220E706F000E716F16
:101C0A00FAEC09F0400E0401736F050E746F400E72
:0E1C1A00756F4DEC09F0005201E1F4D7120095
:101C2800B7EC09F0010E0501406FE5D0B8861A0E31
:101C3800B06E0A0EAF6EAC8424DD410E6D6F050EDA
:101C48006E6F920E6F6F220E706F000E716FFAEC4E
:101C580009F0FBD0B8860D0EB06E040EAF6EAC84E2
:101C680010DD410E6D6F050E6E6F7A0E6F6F220ECE
:101C7800706F000E716FFAEC09F0E7D0B886060EA7
:101C8800B06E820EAF6EAC84FCDC410E6D6F050E3B
:101C98006E6FC20E6F6F220E706F000E716FFAECCE
:101CA80009F0D3D0B886030EB06E400EAF6EAC8488
:101CB800E8DC410E6D6F050E6E6FAA0E6F6F220E77
:101CC800706F000E716FFAEC09F0BFD0B886020E83
:101CD800B06E2B0EAF6EAC84D4DC410E6D6F050E6A
:101CE8006E6F2F0E6F6F220E706F000E716FFAEC11
:101CF80009F0ABD0B886010EB06EA00EAF6EAC8402
:101D0800C0DC410E6D6F050E6E6F480E6F6F220EB0
:101D1800706F000E716FFAEC09F097D0B886B06A50
:101D2800CF0EAF6EAC84ADDC410E6D6F050E6E6FDD
:101D3800610E6F6F220E706F000E716FFAEC09F072
:101D480084D0B886B06A8E0EAF6EAC849ADC410E31
:101D58006D6F050E6E6F160E6F6F220E706F000E90
:101D6800716FFAEC09F071D0B886B06A8A0EAF6E5E
:101D7800AC8487DC410E6D6F050E6E6FFD0E6F6FC4
:101D8800210E706F000E716FFAEC09F05ED0B88604
:101D9800B06A440EAF6EAC8474DC410E6D6F050EF4
:101DA8006E6FC90E6F6F210E706F000E716FFAECB7
:101DB80009F04BD0B886B06A3D0EAF6EAC8461DCDA
:101DC800410E6D6F050E6E6FE30E6F6F210E706F13
:101DD800000E716FFAEC09F038D0410E04016D6FF6
:101DE800050E6E6FAA0E6F6F210E706F000E716F69
:101DF800FAEC09F02AD004016951010AD8B416D7BF
:101E08006951020AD8B426D76951040AD8B436D71A
:101E18006951090AD8B446D769510E0AD8B456D7B9
:101E28006951130AD8B466D76951260AD8B476D747
:101E38006951380A86E06951390A96E06951730A8E
:101E4800A6E06951800AB6E0C8D70401400E736F56
:101E5800050E746F400E756F4DEC09F0005201E1EC
:041E6800F4D7120099
:101E6C0000C021F001C020F002C01FF003C01EF022
:101E7C0004C01DF005C01CF008C01BF009C01AF00E
:101E8C000AC019F00BC018F0E1CF2AF0E2CF2BF00A
:101E9C00E9CF28F0EACF29F0F3CF26F0F4CF27F0E2
:101EAC00F5CF25F0F8CF22F0F7CF23F0F6CF24F0C2
:101EBC007EDC25C0F5FF22C0F8FF23C0F7FF24C04D
:101ECC00F6FF26C0F3FF27C0F4FF21C000F020C0AE
:101EDC0001F01FC002F01EC003F01DC004F01CC0B6
:101EEC0005F01BC008F01AC009F019C00AF018C0A0
:101EFC000BF028C0E9FF29C0EAFF2AC0E1FF2BC084
:041F0C00E2FF1100DF
:101F10002C6A2D6A0401686B4ADC25DC4CDD8B845D
:101F2000B886030EB06E400EAF6EAC8445EC0BF07D
:101F3000000E696F050E6A6F400E6B6F050E6C6FB9
:101F400020DCEFEC09F00052D8B45FD0050100515D
:101F5000010A08E101C569F467DE0501006B0401AF
:101F6000686B53D005010051020A06E12CDD050122
:101F7000006B0401686B49D005010051030A06E1BA
:101F800089DD0501006B0401686B3FD0050100513C
:101F9000040A0AE11BEC0AF02C6A2D6A010E040106
:101FA000686F0501006B31D00051050A04E1B1DD15
:101FB0000501006B2AD00051070A04E193DD0501F9
:101FC000006B23D00051080A0AE11BEC0AF02C6ACE
:101FD0002D6A020E0401686F0501006B16D00051D6
:101FE000090A06E19BEC0AF0006B0401686B0DD056
:101FF00005010051060A01E108D00051000A01E084
:10200000F4DD0501006B0401686B04016851010AED
:1020100011E1000E006E05010251005C02E1015168
:10202000000808E202512D5C02E101512C5C02E340
:1020300070DD686B04016851020A28E10501015155
:1020400000080EE2000E4E5C02E101514D5C08E317
:10205000010E0401696FA2DD1BEC0AF02C6A2D6AE7
:10206000000E006E05010351005C02E10251000800
:102070000DE203512D5C02E102512C5C07E30401E7
:10208000696B8CDD1BEC0AF02C6A2D6A5AD7FFD7DE
:10209000156ED8CF16F0E0CF17F0F2AA07D0F2A451
:1020A00005D0830ED66E2C4A2D2AF2949DAA29D0F3
:1020B0009EAA27D0E9CF54F4EACF55F44F0E4D2411
:1020C000E96E000E4E20EA6EABA202D0AB98AB8850
:1020D000AECFEFFFEC6A4D4A4E2A200E0401566F38
:1020E000565305E09EAA01D002D05607F9D75653A1
:1020F00001E101D0EDD754C4E9FF55C4EAFFFF0E5A
:102100004C6E1750E06E1650D86E153A1538100008
:102110002A03480049004400200074006F0020009A
:10212000530065007200690061006C0020004D00E2
:0A2130006F00640075006C0065008C
:10213A00090229000101008032090400000203009B
:10214A000000092101010001222100070581034045
:09215A000001070501034000012A
:10216300260349004E00460052004100200054005F
:102173006500630068006E006F006C006F0067000D
:0621830069006500730015
:102189000600FF0901A10119012940150026FF00D8
:1021990075089540810219012940750895409102F9
:0121A900C075
:1021AA004572726F72203A20556E6B6E6F776E2091
:0F21BA00426175645261746520496E64657800F6
:1021C90053756363657373203A2042617564526184
:0A21D90074652031313532303000DA
:1021E30053756363657373203A204261756452616A
:0A21F30074652031323830303000BE
:1021FD0053756363657373203A2042617564526150
:09220D00746520353736303000CD
:1022160053756363657373203A2042617564526136
:09222600746520353630303000BB
:10222F0053756363657373203A204261756452611D
:09223F00746520313434303000A4
:1022480053756363657373203A2042617564526104
:0922580074652031393230300088
:1022610053756363657373203A20426175645261EB
:092271007465203338343030006C
:10227A0053756363657373203A20426175645261D2
:08228A0074652032343030008D
:1022920053756363657373203A20426175645261BA
:0822A200746520313230300078
:1022AA0053756363657373203A20426175645261A2
:0822BA00746520393630300054
:1022C20053756363657373203A204261756452618A
:0822D20074652034383030003F
:1022DA001201000200000008BD1F100001000102E7
:0222EA000001F1
:0922EC00556E6B6E6F776E2100D8
:0422F50004030904D1
:020000040030CA
:0E0000002C0E3E1EFF0081FF00800FE00F401F
:00000001FF
