:1000000069EF12F0000000006CEF13F00000000038
:0C00100000000000000000002CEF13F0C6
:10001C0052C604F053C605F050C602F051C603F0A8
:10002C0054C600F00601540700520FE004C0E9FF6B
:10003C0005C0EAFF02C0E1FF03C0E2FFEECFE6FF1E
:10004C00024A032A044A052AEBD750C600F051C6CF
:04005C0001F012009D
:1000600006014C6B4D6B47C601F048C602F049C60D
:1000700003F0000E046E000E006E041808E100503C
:10008000031805E10050021802E10150000A65E082
:1000900047C605F048C606F049C607F005C0F6FF9A
:1000A00006C0F7FF07C0F8FF0900F5CF01F00150C7
:1000B000000A07E04D2B010E0526000E062207223E
:1000C000EDD74DC600F000360090020E002600C0AD
:1000D0004DF647C605F048C606F049C607F04C5134
:1000E0004A25E16E000E4B21E26E00C0E6FF4C2B6C
:1000F0004C514A25E16E000E4B21E26E030EE66E76
:100100004C2B05C0F6FF06C0F7FF07C0F8FF09003B
:10011000F5CF01F00150000A20E04C514A25E16E74
:10012000000E4B21E26E05C0F6FF06C0F7FF07C0C8
:10013000F8FF0900F5CF00F000C0E6FF4C2B010EE0
:100140000526000E062207224C514A25E16E000EBC
:0C0150004B21E26EE66A4C2BD4D7120063
:10015C000B6A0A6A096A00500402F4CF09F0F3CF63
:10016C0008F001500502F4CF0BF0F3CF0AF0005069
:10017C000502F3500926F4500A22E86A0B220150BA
:10018C000402F3500926F4500A22E86A0B2208C034
:10019C0000F009C001F00AC002F00BC003F012001D
:1001AC00060147AF07D0CF0E4B6F000E4C6F020EFF
:1001BC004D6F05D04B0E4B6F000E4C6F4D6B0A0EF6
:1001CC004B25D96E000E4C21DA6EDE504D25036E98
:1001DC00046A000E042203C000F004C001F00036D3
:1001EC0000900136003600900136000E0024496F55
:1001FC00040E01204A6F050E4B25E96E000E4C21B2
:10020C00EA6EEECF01F0EECF02F0000E006E02505F
:10021C00005C02E10150475C05E247C04EF6000E5F
:10022C004F6F0AD0050E4B25E96E000E4C21EA6E7D
:10023C00EECF4EF6EECF4FF6C00E506F040E516F50
:10024C00010E4B25E96E000E4C21EA6EEECF52F6F4
:10025C00EECF53F64EC654F6DBDE020E4925E16EA8
:10026C00000E4A21E26EC00E006E040E016E00C03C
:10027C00E6FF01C0E6FF010E4925E16E000E4A21A2
:10028C00E26E4EC6E6FF030E4F15036E4BC6E9FF3A
:10029C004CC6EAFFEECF02F0060E016E02C000F073
:1002AC00015004E000360090FF0FFBD70350001202
:1002BC0049C6E1FF4AC6E2FF48510010E66E120043
:1002CC00016A026A06014D51025C02E14C51015C6B
:1002DC0017E201504A25E16E02504B21E26E0150AB
:1002EC004725F66E02504821F76E000E4921F86E34
:1002FC000900F5CF00F000C0E6FF014A022AE2D760
:02030C001200DD
:10030E000B0E006E000E016E40C604F0000E056E60
:10031E001EDF4B0E0026000E012200C043F601C068
:10032E0044F6010E0024E16E000E0120E26E41C67D
:10033E00E6FF42C6E6FF030E06014325E16E000E00
:10034E004421E26E080E4325E96E000E4421EA6E4A
:10035E00EECFE6FFEECFE6FF050E4325E16E000E73
:10036E004421E26E080E4325E96E000E4421EA6E2A
:10037E00EECFE6FFEECFE6FF40C600F0000E016EB8
:10038E000036013600900036013600900A0E4325E5
:10039E00D96E000E4421DA6EDE500024036E000E7C
:1003AE000120046E03C000F004C001F0003600907E
:1003BE000136003600900136000E0026040E012292
:1003CE0000C045F601C046F6020E0024E16E000E96
:1003DE000120E26E010E4325E96E000E4421EA6E05
:1003EE00EECFE6FFEECFE6FF010E4525E16E000EE5
:1003FE004621E26E080E4325E96E000E4421EA6E98
:10040E00EECFE6FF080E4325E96E000E4421EA6E9C
:10041E00EECF03F0EECF04F004C000F0016A030E3D
:10042E000014036E43C6E9FF44C6EAFFEECF02F0A6
:10043E00060E016E02C000F0015004E0003600907E
:10044E00FF0FFBD70350001245C6E1FF46C6E2FF81
:08045E00880E0010E66E12008A
:10046600C00E4C6E040E4D6E080E4E6E000E4F6E94
:10047600080E506E000E516E4B6A0601476B8C0ECD
:06048600486F91DE120038
:10048C0075D06E0E006E290E016E000E026E00C04D
:10049C0047F601C048F602C049F6800E06014A6FC5
:1004AC00050E4B6F00C0F6FF01C0F7FF02C0F8FF4E
:1004BC000900F5CF4CF6000E4D6F02DF800E006E7A
:1004CC00050E016E67D05C0E476F290E486F000E4B
:1004DC00496F800E4A6F050E4B6FBCDD800E006EAF
:1004EC00050E016E57D01E0E476F290E486F000E79
:1004FC00496F800E4A6F050E4B6FACDD800E006E9F
:10050C00050E016E47D0450E476F290E486F000E41
:10051C00496F800E4A6F050E4B6F9CDD800E006E8E
:10052C00050E016E37D0730E476F290E486F000E03
:10053C00496F800E4A6F050E4B6F8CDD800E006E7E
:10054C00050E016E27D0720E476F290E486F000EF4
:10055C00496F800E4A6F050E4B6F7CDD800E006E6E
:10056C00050E016E17D0006A016A14D006014051C5
:10057C00000A87E04051010AA6E04051020AB3E0AC
:10058C004051030AC0E04051040ACDE04051050A35
:06059C00DAE0E9D71200CD
:0605A200040E456E12007C
:1005A800CF0E006E000E016E010E0024E16E000EEB
:1005B8000120E26E37C6E6FF38C6E6FF030E0024C8
:1005C800E16E000E0120E26E39C6E6FF3AC6E6FF8C
:1005D800050E0024E16E000E0120E26E39C6E6FF2A
:1005E8003AC6E6FF00C0E1FF01C0E2FF010EE66E79
:0605F800020E456E120028
:1005FE000001D06BD16BD26BD36BD46BD56B010E6C
:10060E00CF6F800E0601476F840E486FC8DD24DF62
:02061E001200C8
:1006200060D0330E006E290E016E000E026E00C007
:1006300047F601C048F602C049F6800E06014A6F2F
:10064000050E4B6F00C0F6FF01C0F7FF02C0F8FFB8
:100650000900F5CF4CF6000E4D6F38DE800E006EAF
:10066000050E016E49D08C0E006E270E016E000E35
:10067000026E00C047F601C048F602C049F6800E7F
:100680004A6F050E4B6F020E0024F66E000E01201D
:10069000F76E000E0220F86E0900F5CF04F0030E8D
:1006A0000024F66E000E0120F76E000E0220F86E98
:1006B0000900F5CF03F003C001F0006A04500024E4
:1006C0004C6F000E01204D6F01DE800E006E050E96
:1006D000016E12D038C640F6D9DE0ED0006A016A2B
:1006E0000BD006013751010A9CE03751020ABBE0EA
:0A06F0003751030AEFE0F2D71200C1
:1006FA0009D0010E0601406F000E416F050E426FD0
:0E070A0001DE04D006013751050AF3E01200AB
:100718000F0E060137153D6F3E6B3F6B37AF06D0A6
:10072800CF0E3B6F000E3C6F3E8305D04B0E3B6FE8
:10073800000E3C6F3E850B0E006E000E016E3DC62E
:1007480004F0000E056E06DD3B5100263C510122E7
:1007580000C03BF601C03CF6070E0024E16E000E17
:100768000120E26E38C6E6FF3BC6E1FF3CC6E2FF69
:10077800E66A080E3B25E16E000E3C21E26E39C6A2
:10078800E6FF3AC6E6FF3E873851010AD8A43E89FB
:10079800700E016E0F0E026E3D510126D8B0022A6E
:1007A80001C0E9FF02C0EAFF3E51EE10006E01C031
:0C07B800E1FF02C0E2FF00C0E6FF1200FB
:1007C4000601326B336B30C6E9FF31C6EAFFEECF68
:1007D40000F0600E0014366F2DD1010E3025346FF9
:1007E400000E3121356F31D0020E3025E96E000E36
:1007F4003121EA6EEECF34F0D2DE58D0340E376FAA
:10080400000E386F010E396F000E3A6FCBDE4ED0FA
:10081400020E3025E96E000E3121EA6EEECF03F0B0
:10082400EECF04F004C000F0016A00C032F0B7DE7D
:100834003DD0320E376F000E386F010E396F000E47
:100844003A6FB0DE33D0D9DEFDD034C6E9FF35C609
:10085400EAFFEECF01F0000E000A02E10B0E0118D0
:10086400C3E034C6E9FF35C6EAFFEECF01F0000E5F
:10087400000A02E1030E0118C1E034C6E9FF35C6DF
:10088400EAFFEECF01F0000E000A02E10A0E0118A1
:10089400BFE034C6E9FF35C6EAFFEECF01F0000E33
:1008A400000A02E1020E0118C4E0CDD7CBD0010E3C
:1008B4003025346F000E3121356FA5D0020E30255E
:1008C400E96E000E3121EA6EEECF03F0EECF04F0B4
:1008D40004C001F0026A0250000A02E1220E01186B
:1008E40033E1060E3025E96E000E3121EA6EEECFBB
:1008F40001F0EECF02F001C032F602C033F6000E72
:10090400006E0250005C02E10150210804E2210E55
:10091400326F000E336FD60E476F270E486F000EEE
:10092400496F800E4A6F050E4B6F32C64CF633C6C4
:100934004DF6CADC800E376F050E386F32C639F6B5
:1009440033C63AF62FDE4AD0020E3025E96E000E89
:100954003121EA6EEECF03F0EECF04F004C001F0D3
:10096400026A000E021802E1210E011837E1060E98
:100974003025E96E000E3121EA6EEECF01F0EECFA4
:1009840002F001C032F602C033F6000E006E0250CF
:10099400005C02E10150090804E2090E326F000E06
:1009A400336F8C0E476F270E486F000E496F120E7F
:1009B4004727000E48234923800E4A6F050E4B6FCC
:1009C40032C64CF633C64DF67FDC800E376F050E0B
:1009D400386F32C639F633C63AF6E4DD2AD0330E20
:1009E400376F000E386F010E396F000E3A6FDADD83
:1009F40020D0020E3025E96E000E3121EA6EEECFD2
:100A040033F0CDDD16D034C6E9FF35C6EAFFEE502B
:100A1400060AD8B453D734C6E9FF35C6EAFFEE5008
:100A24000A0ADDE034C6E9FF35C6EAFFEE500B0AD8
:100A3400E0E008D03651200AD8B4CFD63651000AA7
:060A4400D8B435D7120002
:100A4A00020E0601376F30C638F6000E396F3A6B60
:100A5A003B6BE1DD00C033F601C034F6020E002420
:100A6A00E96E000E0120EA6EEECF05F0030E0024B7
:100A7A00E96E000E0120EA6EEECF03F0000E046E5E
:100A8A0003C001F0006A05500024316F000E0120F6
:100A9A00326F010E3325E96E000E3421EA6EEE50F4
:100AAA00050A2FE1020E3325E96E000E3421EA6EA3
:100ABA00EECF37F6030E3325E96E000E3421EA6EC7
:100ACA00EECF06F0040E3325E96E000E3421EA6EED
:100ADA00EECF05F0050E3325E96E000E3421EA6EDD
:100AEA00EECF03F0000E046E03C001F0006A055059
:100AFA000024396F000E01203A6F030E0614386F76
:100B0A0006DE33C6D9FF34C6DAFFDE50315D006E29
:100B1A00000E3259016E00C031F601C032F60050A3
:100B2A0001100AE033C6E9FF34C6EAFFEECF00F04F
:100B3A0000503327000E342331513211AAE1100E2E
:0A0B4A00436E050E376FD4DD120074
:100B540030C6D0F031C6D1F032C6D2F033C6D3F0AD
:0E0B640032C6D4F033C6D5F0020E456E120034
:100B7200010E06012625E96E000E2721EA6EEE50CF
:100B8200030A03E1010E2D6F01D02D6B26C6E9FF8A
:100B920027C6EAFFEECF00F01F0E00142E6F1CD105
:100BA200020E2625E96E000E2721EA6EEECF01F035
:100BB200EECF02F0000E021802E1010E011817E159
:100BC200040E456E2D5307E0020E01015311006E13
:100BD20000C053F10BD00101FD0E5315006E00C091
:100BE20053F126C630F627C631F6EBDD1BD00601DF
:100BF2002D5316E0020E2625E96E000E2721EA6E1D
:100C0200EECF01F0EECF02F0000E021802E1020E6A
:100C1200011805E126C630F627C631F6D2DD02D02C
:100C2200060E456EE5D026C630F627C631F6C9DD7A
:100C3200DFD0020E2625E96E000E2721EA6EEECFE6
:100C420001F0EECF02F0000E021802E1000E0118D0
:100C5200D8A4BCD0040E2625E96E000E2721EA6E28
:100C62000F0EEE14006EEECF01F0000E01160050D2
:100C72000110D8B4A8D0040E2625056E000E272137
:100C8200066E05C0E9FF06C0EAFF0F0EEE14016E04
:100C920001C028F601C003F0000E046E03360436CC
:100CA200039003360436039003C000F004C001F041
:100CB200003600900136003600900136000E002406
:100CC200296F040E01202A6F05C0E9FF06C0EAFF62
:100CD200EECF02F0EECF03F002AE04D0080E2927C9
:100CE200000E2A232D5322E029C6E9FF2AC6EAFF75
:100CF20029C6E1FF2AC6E2FF840EEE12040E292560
:100D0200016E000E2A21026E01C029F602C02AF6E7
:100D120001C0E9FF02C0EAFF840EEE10006E01C0BE
:100D2200E1FF02C0E2FF00C0E6FF4DD029C6E9FFA5
:100D32002AC6EAFF29C6E1FF2AC6E2FF7B0EEE16AB
:100D4200040E2925016E000E2A21026E01C029F629
:100D520002C02AF601C0E9FF02C0EAFF7B0EEE14D0
:100D6200006E01C0E1FF02C0E2FF00C0E6FF040E18
:100D72002625E96E000E2721EA6EEECF02F0EECFB5
:100D820003F002AE05D0CF0E2B6F000E2C6F04D0F5
:100D92004B0E2B6F000E2C6F0B0E006E000E016EB1
:100DA20028C604F0000E056EAEEC00F02B510026B2
:100DB2002C51012200C02BF601C02CF600C0E1FF2D
:100DC20001C0E2FFE66A040E456E05D026C630F683
:100DD20027C631F6F6DC0CD02E51000AD8B4E0D684
:100DE2002E51010AD8B41FD72E51020AD8B421D7E6
:020DF2001200ED
:100DF4000B0E006E000E016E0CC604F0000E056EA4
:100E0400AEEC00F0CF0E0026000E012200C011F659
:100E140001C012F6010E0024E16E000E0120E26E04
:100E24000DC6E6FF0EC6E6FF030E06011125E16EB0
:100E3400000E1221E26E0FC6E6FF10C6E6FF050E95
:100E44001125E16E000E1221E26E0FC6E6FF10C6F8
:100E5400E6FF0CC600F0000E016E0036013600906D
:100E6400003601360090020E0026000E01220A0E02
:100E74001125D96E000E1221DA6EDE500024036EA5
:100E8400000E0120046E03C000F004C001F000361F
:100E940000900136003600900136000E0026040E44
:100EA400012200C013F601C014F6020E0024E16E04
:100EB400000E0120E26E0DC6E6FF0EC6E6FF010E2F
:100EC4001325E16E000E1421E26E0FC6E6FF10C674
:100ED40000F0016A030E0014036E11C6E9FF12C686
:100EE400EAFFEECF02F0060E016E02C000F00150E0
:100EF40004E000360090FF0FFBD70350001213C626
:0E0F0400E1FF14C6E2FF880E0010E66E120038
:100F1200020E06012625E96E000E2721EA6EEECFAB
:100F220001F0EECF02F002C02DF62E6B8FD0010E33
:100F3200376F386B396B3A6B3B6B10EC03F000C0C8
:100F420028F601C029F66E50000A05E1080E2B6F43
:100F5200000E2C6F0AD028C6E9FF29C6EAFFEECFA1
:100F62002BF6000E2C6F000E2C6F84D0020E26255D
:100F7200E96E000E2721EA6EEECF01F001C02AF6DB
:100F82000150485C03E2060E456E97D0020E376FA1
:100F92002AC638F6000E396F3A6B3B6B10EC03F041
:100FA20000C028F601C029F6020E0024E96E000EE8
:100FB2000120EA6EEECF05F0030E0024E96E000E6A
:100FC2000120EA6EEECF03F0000E046E03C001F0C2
:100FD200006A055000242B6F000E01202C6F4AD0AE
:100FE200030E376F020E2625E96E000E2721EA6EE8
:100FF200FF0EEE14386FEECF39F6000E3917040EDD
:101002002625E96E000E2721EA6EEECF3AF6EECFE4
:101012003BF610EC03F000C028F601C029F6000EE2
:10102200011802E1000E001803E1060E456E45D0DC
:1010320028C6E9FF29C6EAFFEECF2BF6000E2C6F79
:10104200000E2C6F17D0060E456E37D0000E2E19EB
:1010520002E1010E2D19D8B46AD7000E2E1902E151
:10106200020E2D1983E0000E2E1902E1030E2D1936
:10107200B7E0E9D7060E2625D96E000E2721DA6ED3
:10108200DECF01F0DECF02F02C51025C02E12B51E7
:10109200015C0AE2060E2625E96E000E2721EA6EA1
:1010A200EECF2BF6EECF2CF628C630F629C631F657
:0C10B2002BC632F62CC633F64CDD1200C3
:1010BE00020E06012625E96E000E2721EA6EEECFFE
:1010CE0001F001C028F60150485C03E2060E456EA1
:1010DE0028D04350080A10E12851000A03E1040EFB
:1010EE00456E07D0100E436E040E456E28C630F6C0
:1010FE00A5DC28C649F015D04350100A10E128513E
:10110E00000A05E1080E436E040E456E05D0040E6E
:10111E00456E28C630F692DC28C649F002D0060E7F
:04112E00456E1200F8
:1011320026C6E9FF27C6EAFFEECF00F01F0E001415
:1011420006012F6F7ED053C12DF6000E2E6F85D073
:101152002D6B2E6B82D0040E2625056E000E2721E4
:10116200066E05C0E9FF06C0EAFF0F0EEE14016E1F
:1011720001C028F601C003F0000E046E03360436E7
:10118200039003360436039003C000F004C001F05C
:10119200003600900136003600900136000E002421
:1011A200296F040E01202A6F05C0E9FF06C0EAFF7D
:1011B200EECF02F0EECF03F002AE09D0CF0E2B6FCE
:1011C200000E2C6F080E2927000E2A2304D04B0E86
:1011D2002B6F000E2C6F0B0E006E000E016E28C6D8
:1011E20004F0000E056EAEEC00F02B5100262C51DF
:1011F200012200C02BF601C02CF600C0E9FF01C09D
:10120200EAFFEECF03F003C000F0000E016E0036DD
:1012120000900136003600900136295100262A51ED
:10122200012200C029F601C02AF600C0E9FF01C070
:10123200EAFFEECF00F02D6B00B42D2B000E2E6FC7
:101242000CD02F51000AD8B47ED72F51010AD8B43E
:101252007FD72F51020AD8B47ED72D0E306F060EDB
:0E126200316F020E326F000E336F73DC12001C
:101270000B0E0C6E620E0D6E0D2EFED70C2EFCD7D3
:041280000000120058
:10128400086A096A100E0C6E0134083609360450D7
:10129400085E0550D8A0053C095ED8B007D00450BC
:1012A40008260550D8B0053C0926D89000360136EA
:0612B4000C2EEAD7120027
:1012BA0008C604F009C605F006C602F007C603F020
:1012CA000AC600F00BC601F0010E06010A5F000E05
:1012DA000B5B005001100FE004C0E9FF05C0EAFFF4
:1012EA0002C0E1FF03C0E2FFEECFE6FF024A032A93
:1012FA00044A052AE5D706C600F007C601F012001F
:10130A00700E416E0F0E426E0301E76BE86B000E22
:10131A00E85D02E10C0EE75D0AE241C0E1FF42C06E
:10132A00E2FFE66A414A422AE74BE82BF0D712006D
:10133A0016D00001D06BD16BD26BD36BD46BD56B4B
:10134A000001010ECF6F800E0601476F880E486FAD
:10135A00D6EC00F017D016D0FFEC02F013D0000E36
:10136A00000A02E1040E4518E4E0000E000A02E158
:10137A00020E4518E5E0000E000A02E1030E4518C8
:06138A00EAE0EAD71200C0
:0E13900006012251010A02E1010E2E6E12002A
:10139E0006012251010A0AE1010E2F6E010E406F65
:0E13AE00000E416F050E426F87EC01F0120039
:1013BC00010E06012225246F000E2321256F64D017
:1013CC0022C626F623C627F6AEDEACD022C626F6FB
:1013DC0023C627F6B9EC05F0A5D0020E060122258E
:1013EC00006E000E2321016E00C0E9FF01C0EAFF70
:1013FC00EECF4AF000C0E9FF01C0EAFFEECF02F0E9
:10140C00EECF03F0000E031802E1000E021803E009
:10141C00080E436E02D0040E436E040E456E82D04D
:10142C0022C6E9FF23C6EAFFEECF00F01F0E001420
:10143C00016E0150000A06E122C626F623C627F6E5
:10144C0062DD06D022C630F623C631F6E2EC03F09C
:10145C0069D0490E306F000E316F010E326F000EE5
:10146C00336FAAEC05F05ED022C626F623C627F60B
:10147C0020DE58D022C630F623C631F6E2EC03F05B
:10148C0051D0060E456E4ED024C6E9FF25C6EAFFA4
:10149C00EE50000A95E024C6E9FF25C6EAFFEE509F
:1014AC00010A94E024C6E9FF25C6EAFFEE50030AC0
:1014BC008DE024C6E9FF25C6EAFFEE50050A8DE053
:1014CC0024C6E9FF25C6EAFFEE50060AA9E024C6A9
:1014DC00E9FF25C6EAFFEE50080ABBE024C6E9FF87
:1014EC0025C6EAFFEE50090ABFE024C6E9FF25C66F
:1014FC00EAFFEE50070ABEE024C6E9FF25C6EAFF64
:10150C00EE500C0AB7E024C6E9FF25C6EAFFEE5000
:10151C000A0AB0E024C6E9FF25C6EAFFEE500B0A22
:06152C00A9E0AFD7120098
:10153200000E416E040E426E0301E76BE86B000E73
:10154200E85D02E1C00EE75D0AE241C0E1FF42C090
:10155200E2FFE66A414A422AE74BE82BF0D7430E04
:10156200416E000E426EE76BE86B010EE85D02E130
:10157200110EE75D0AE241C0E1FF42C0E2FFE66A06
:0C158200414A422AE74BE82BF0D7120048
:10158E002F6A010E06010C6F400E0D6F050E0E6FC9
:10159E00400E0F6F000E106F26DCE80E0101586F23
:1015AE00030E596F2F520DE1000E591902E1000E74
:1015BE00581902E1006A07D0010E585F000E595B00
:0815CE00F1D7FF0E006E1200C0
:1015D600016A400E015C0BE2400EE16E050EE26E02
:1015E6000150E126D8B0E22AE66A012AF2D71200B3
:0C15F600ACB201D0FDD706C6ADFF12005C
:1016020006010051000A01E135D03B0E0301FF6FD4
:101612003B0E046E000E056EE4C300F0E5C301F05C
:1016220030DE08C000F009C001F000C000F6D2DFD1
:10163200040E0501406F00C641F5426B00C643F53A
:101642001A0E446F0301FF51FE03F3CF00F0F4CFF3
:1016520001F0450E0601066F050E076F5A0E0024B3
:10166200086F010E0120096F41C50AF6000E0B6FCB
:0616720023DE8CDF1200F4
:101678006B6A6A6A696A686A44DE160E6F6E6E6A19
:1016880054DF9F0E6B6E7B0E696E6D8C6D9C160E13
:0C169800706E080E6D6E436A456A120009
:1016A4003B0E0301FF6F3B0E046E000E056EE4C398
:1016B40000F0E5C301F0E4DD00C000F63B0E046E6B
:1016C400000E056EE4C300F0E5C301F0D9DD08C0E7
:1016D40000F009C001F000C001F606010051000A43
:1016E40001E12BD076DF040E0501406FFFC341F505
:1016F4000301FE510601005D006E000600C042F5C4
:1017040001C643F51A0E0501446F0301FF51FE03A0
:10171400F3CF00F0F4CF01F0450E0601066F050E7D
:10172400076F5A0E0024086F010E0120096F41C58E
:0C1734000AF6000E0B6FBFDD28DF12006C
:101740004ADF040E0501406F416B426B436B446BF3
:041750001EDF120086
:10175400FF0E3D6EFF0E3E6EFF0E3F6EFF0E406E9F
:10176400FF0E396EFF0E3A6E000E3B6E000E3C6E9D
:10177400FF0E356EFF0E366E000E376E000E386E9D
:10178400FF0E0101546FFF0E556F000E566F000ED1
:10179400576FAC8A900EAB6E948E949C9EAA03D025
:0817A400AECF00F0FBD71200EC
:1017AC0003C6F6FF04C6F7FF05C6F8FF0900F5CF20
:1017BC0000F001C6E1FF02C6E2FF00C0E6FF01C671
:1017CC00E9FF02C6EAFFEE50000A01E109D006016A
:1017DC00014B022B010E0327000E04230523E0D737
:0217EC001200E9
:0417EE009D9A1200AE
:1017F2000301FE6BFF6B060104510301FF5D04E16F
:10180200060103510301FE5D19E2000E006E06019E
:101812000251005C02E1015100080BE20251030196
:10182200E55D04E1060101510301E45D02E3006AA2
:1018320012D003011CDDFE4BFF2BDDD7000E006E24
:10184200E551005C02E1E451000803E2020E006E81
:0818520002D0010E006E12002D
:10185A000301FE6B050101510301FE5D0EE2060E56
:10186A00E96E050EEA6EFE51E926D8B0EA2AEECFF5
:10187A0006F6BCDE0301FE2BEDD7A8DE030E05013A
:0A188A00406F05C541F57EDE120037
:10189400880E0301FE6F130EFF6F2E520FE1010E2F
:1018A400FE5F000EFF5B000EFF1902E1000EFE1941
:1018B40003E1010E006E03D0D9DCEFD7006A1200F9
:1018C400E9C3E9FFEAC3EAFFEECF00F03C0E0014DF
:1018D400016E01C006F00632069E0632069E06C060
:1018E4001EF6010E0301E925E96E000EEA21EA6EF7
:1018F400EECF05F0E9C3E9FFEAC3EAFFEECF00F05B
:10190400000E016E030E0014036E01C004F0000EFD
:10191400041603C001F0006A0050051006011F6F91
:10192400000E0110206F06500D0A42E17F0E0401E3
:101934000815006E00C008F47F0E0C15006E00C080
:101944000CF4EDC3E9FFEEC3EAFFEECF00F0EDC304
:10195400E1FFEEC3E2FF7F0E0014E66EEF0E060118
:10196400506F030E516FC00E526F040E536F080E6A
:10197400546F0EEC00F000C01CF601C01DF600C050
:10198400E9FF01C0EAFF600EEE14016E0150000A87
:1019940006E11CC622F61DC623F60EDD06D01CC6C3
:1019A40030F61DC631F6E2EC03F06D98C4DCA2D12A
:1019B40006011E51010AD8A4BFD0000E000A02E19C
:1019C400050E451804E1456A33EC02F0B4D0000E6C
:1019D400000A02E1030E4518D8A4ADD0010E03019C
:1019E400EB25E96E000EEC21EA6EEECF50F6EECF59
:1019F40051F6C00E0601526F040E536F1FC654F603
:101A04000EEC00F0050E0301EB25026E000EEC2136
:101A1400036E02C0E9FF03C0EAFF06011F51EE5C3A
:101A2400006E2051EE58016E02C0E1FF03C0E2FFD8
:101A340000C0E6FF01C0E6FF010E0301EB25026EC4
:101A4400000EEC21036E02C0E9FF03C0EAFF0601A9
:101A54001F51EE24006E2051EE20016E02C0E1FF02
:101A640003C0E2FF00C0E6FF01C0E6FF030E03016E
:101A7400EB25026E000EEC21036E02C0E9FF03C0E9
:101A8400EAFF06011F51EE24006E2051EE20016E84
:101A940002C0E1FF03C0E2FF00C0E6FF01C0E6FFB1
:101AA400000E205D02E147501F5D2DE2CF0E1A6F3C
:101AB400000E1B6F010E1A25E16E000E1B21E26E53
:101AC400C00EE66E040EE66E030E1A25E16E000EDD
:101AD4001B21E26EE66AE66A050E1A25E16E000E27
:101AE4001B21E26EE66AE66A1AC6E1FF1BC6E2FF44
:101AF400010EE66E800E476F880E486FD6EC00F03C
:101B0400040E456E12D0EBC3E9FFECC3EAFFEECF3F
:101B140000F0EBC3E1FFECC3E2FF010E0018E66E38
:101B2400476B880E486FD6EC00F0226B1FC623F675
:101B340020C624F62BDCDED00601216B050E030142
:101B4400EB25E96E000EEC21EA6EEECF01F0EECF4C
:101B540002F0000E021802E1475001180BE1000EDA
:101B6400006EF651005C02E1F551475C03E2010EA0
:101B74000601216F050E0301EB25026E000EEC2118
:101B8400036E02C0E9FF03C0EAFF06011F51EE5CC9
:101B9400006E2051EE58016E02C0E1FF03C0E2FF67
:101BA40000C0E6FF01C0E6FF010E0301EB25026E53
:101BB400000EEC21036E02C0E9FF03C0EAFF060138
:101BC4001F51EE24006E2051EE20016E02C0E1FF91
:101BD40003C0E2FF00C0E6FF01C0E6FF050E0301FB
:101BE400EB25E96E000EEC21EA6EEECF01F0EECFAC
:101BF40002F0000E006E0250005C02E10150000889
:101C040016E3050EEB25E96E000EEC21EA6EEECF2D
:101C140001F0EECF02F0000E021802E1000E0118EE
:101C240005E106012151010A01E101D015D00601A7
:101C3400EBC3E9FFECC3EAFFEECF00F0EBC3E1FF37
:101C4400ECC3E2FF010E0018E66E800E476F880EAB
:101C5400486FD6EC00F04BD00601800E476F840E1F
:101C6400486FD6EC00F0000E000A02E1020E45189F
:101C740030E1050E456E4B0E1A6F000E1B6F010E00
:101C84001A25E16E000E1B21E26EC00EE66E040EF4
:101C9400E66E030E1A25E16E000E1B21E26E080E9D
:101CA400E66E000EE66E050E1A25E16E000E1B218F
:101CB400E26E080EE66E000EE66E1AC6E1FF1BC663
:101CC400E2FF010EE66E476B880E486FD6EC00F01B
:101CD4000ED0000E000A02E1040E451808E143503C
:101CE400080A02E14AC06EFF456A33EC02F0226B37
:061CF400CFEC09F0120024
:101CFA00AECFE6F30301E66B9D8A01015A6B03013D
:061D0A00E46BE56B120022
:101D1000880E0601016F130E026F2E5210E1010EA4
:101D2000015F000E025B000E021902E1000E0119B4
:101D300003E1010E006E12D038EC09F0EED7050178
:101D40000051060A09E101510301FE1902E1006A8E
:0E1D500005D0020E006E02D0030E006E1200CF
:101D5E00D08EF28CF1949F9AF294F28AF28E120047
:101D6E000F0EC16E070EB46ED58CD59AD596D5844E
:0C1D7E00D592D580D76AD66AD58E1200A7
:101D8A0025DC010E0501406FE4D0B8861A0EB06E4C
:101D9A000A0EAF6EAC84D9DC410E0601016F050E46
:101DAA00026FD00E036F280E046F000E056FF9DC68
:101DBA00FBD0B8860D0EB06E040EAF6EAC84C5DCD7
:101DCA00410E0601016F050E026FB60E036F280E53
:101DDA00046F000E056FE5DCE7D0B886060EB06E1C
:101DEA00820EAF6EAC84B1DC410E0601016F050EA6
:101DFA00026F040E036F290E046F000E056FD1DC0B
:101E0A00D3D0B886030EB06E400EAF6EAC849DDCA4
:101E1A00410E0601016F050E026FEA0E036F280ECE
:101E2A00046F000E056FBDDCBFD0B886020EB06E1F
:101E3A002B0EAF6EAC8489DC410E0601016F050ED4
:101E4A00026F800E036F280E046F000E056FA9DC67
:101E5A00ABD0B886010EB06EA00EAF6EAC8475DC46
:101E6A00410E0601016F050E026F9B0E036F280ECD
:101E7A00046F000E056F95DC97D0B886B06ACF0E56
:101E8A00AF6EAC8462DC410E0601016F050E026F73
:101E9A00650E036F280E046F000E056F82DC84D076
:101EAA00B886B06A8E0EAF6EAC844FDC410E060166
:101EBA00016F050E026F2F0E036F280E046F000EBE
:101ECA00056F6FDC71D0B886B06A8A0EAF6EAC84CB
:101EDA003CDC410E0601016F050E026F4A0E036FCC
:101EEA00280E046F000E056F5CDC5ED0B886B06AFF
:101EFA00440EAF6EAC8429DC410E0601016F050E5B
:101F0A00026FF70E036F270E046F000E056F49DC90
:101F1A004BD0B886B06A3D0EAF6EAC8416DC410E6B
:101F2A000601016F050E026F130E036F280E046F70
:101F3A00000E056F36DC38D0410E0601016F050E22
:101F4A00026FB50E036F270E046F000E056F29DCB2
:101F5A002BD00301FB51010AD8B417D7FB51020A4F
:101F6A00D8B427D7FB51040AD8B437D7FB51090A8A
:101F7A00D8B447D7FB510E0AD8B457D7FB51130A26
:101F8A00D8B467D7FB51260AD8B477D7FB51380A99
:101F9A00D8B486D7FB51390A96E0FB51730AA6E0FA
:0E1FAA00FB51800AB6E0C8D7C7EC0AF012005F
:101FB8000900F5CFE6FF0006FBE10106F9E1120092
:061FC80043C000F012000E
:101FCE00EBEC0AF0060E0501406F410E0601016FA3
:101FDE00050E026F510E036F290E046F000E056F72
:0A1FEE00D6EC0BF0C7EC0AF012006D
:101FF800806A816A826A8B94949489909290120084
:022008001200C4
:10200A000301FB6B050101510301FB5D0FE2020EA7
:10201A00E96E050EEA6EFB51E926D8B0EA2AEECF40
:0E202A0006F6FBEC0AF00301FB2BECD71200CC
:10203800EBEC0AF0050E0501406F0301FB5303E0CA
:1020480001C541F502D0E4C341F5420E0601066F11
:10205800050E076F5A0E086F010E096F41C50AF683
:0E206800000E0B6F5DEC09F0C7EC0AF01200E1
:102076004350000A07E1080E6D6E010E436E686A52
:10208600020E436E68506914016E01A413D044C059
:1020960043F0080E0601376F7DEC03F06994FF0EDE
:1020A600156F68A407D015C600F01507005202E0A8
:1020B6006894F7D768506914016E01A042D03CECD1
:1020C6000BF0010E0601376F386B396B3A6B3B6BC1
:1020D60010EC03F0070E0024E96E000E0120EA6EF4
:1020E600EECF47F0110E0024E96E000E0120EA6ED5
:1020F600EECF48F0040E436E47C053F0000E546E08
:1021060047C0D7F0000E0001D86F020E0601376FE8
:102116007DEC03F0C00E4C6E040E4D6E080E4E6E36
:10212600000E4F6E080E506E000E516E4B6A4CC07C
:1021360002F44DC003F4080E0401016F8C0E006F0B
:10214600689068506914016E01A80BD0689869847C
:1021560043C044F0200E436E060E0601376F7DEC39
:1021660003F068506914016E01AC06D00601689C44
:10217600080E376F7DEC03F068506914016E01AAF2
:1021860003D070B07090689A68506914016E01A20D
:1021960002D06A6A6892040E435C02E2A19ACCD02D
:1021A6000601186B040E185DD8B0C5D068506914C6
:1021B600016E01A6BDD06CCF46F046C000F00032DD
:1021C600009E0032009E0032009E0F0E0014016E2B
:1021D60001C019F6689601C003F0000E046E0336BE
:1021E6000436039003360436039003C000F004C09F
:1021F60001F0003600900136003600900136000EE0
:1022060000240301E96F040E0120EA6F46A409D0F9
:10221600CF0EEB6F000EEC6F080EE927000EEA23D7
:1022260004D04B0EEB6F000EEC6F0B0E006E000E23
:10223600016E19C604F0000E056EAEEC00F00050FB
:10224600EB270150EC23040EE925ED6F000EEA2181
:10225600EE6F46A208D0E9C3EDF3EAC3EEF3040E2F
:10226600E927000EEA230A0EEB25016E000EEC218B
:10227600026E01C0E9FF02C0EAFF010EEE18006E11
:1022860001C0E1FF02C0E2FF00C0E6FF06011951EE
:10229600000A03E162EC0CF04BD046A412D0EBC36B
:1022A600E9FFECC3EAFFEECF00F0EBC3E1FFECC3BE
:1022B600E2FF010E0018E66E19C622F6CFEC09F011
:1022C60037D0010E0301E925E96E000EEA21EA6E18
:1022D600EECF05F0E9C3E9FFEAC3EAFFEECF00F06F
:1022E600000E016E030E0014036E01C004F0000E12
:1022F600041603C001F0006A005005100601166FAF
:10230600000E0110176FEBC3E9FFECC3EAFFEECF37
:1023160000F0EBC3E1FFECC3E2FF010E0018E66E2E
:1023260019C622F616C623F617C624F6C8EC09F017
:0A2336000601182B37D7A19A1200F8
:102340000301FB6BFC6BFD6B0301F7EC0BF0000E64
:10235000E51902E1000EE41903E1A0EC0BF030D026
:102360003B0E046E000E056EE4C300F0E5C301F001
:1023700042EC09F000C0FCF30301FB6BFC51FB5D78
:102380001BE2FBC3FEF352EC0BF044C5FEF3C0DCD2
:1023900000C0FDF30050030A01E1D6D70301FD514F
:1023A000000A07E0040E0501406F446BC7EC0AF019
:1023B00007D00301FB2BE2D7FCC3FEF301EC0BF0CB
:0223C000120009
:1023C2002DEC0CF0000E006E05010351005C02E1E1
:1023D2000251000816E24AEC0CF00050000A09E033
:1023E200EBEC0AF0030E0501406F416BC7EC0AF0FB
:1023F20008D005010051030A01E003D02DEC0CF0D6
:04240200E1D712000C
:10240600000E006E05010451005C02E10351000854
:1024160001E270DC0301FB6B050101510301FB5D69
:102426000FE2050EE96E050EEA6EFB51E926D8B0FD
:10243600EA2AEECF06F6FBEC0AF00301FB2BECD7FB
:10244600000E0501041902E1000E031901E13DD059
:1024560002C501F6000E0601026F03C503F604C5A8
:1024660004F6F9EC0BF000C0FCF3F7EC0BF0EBEC28
:102476000AF0020E0501406F0301FC51000A12E149
:1024860002C541F5420E0601066F050E076F5A0E8C
:10249600086F010E096F02C50AF6000E0B6F5DECA0
:1024A60009F011D00601E4C341F5420E066F050E90
:1024B600076F5A0E086F010E096FE4C30AF6E5C3EB
:0C24C6000BF65DEC09F0C7EC0AF0120008
:1024D200BAEC14F00301FA6B8EDD48DC3FDC8B842E
:1024E200B886030EB06E400EAF6EAC84AAEC0BF051
:1024F2008ADD3CEC0BF0D08EA28AA08AF28E63DDDC
:102502000050100A01E0FBD72E52D8B45ED005016C
:102512000051010A08E101C5FBF336DC0501006B3D
:102522000301FA6B51D005010051020A06E16ADF8C
:102532000501006B0301FA6B47D005010051030A44
:1025420006E13EDF0501006B0301FA6B3DD0050198
:102552000051040A09E17DEC0EF0306A316A010E85
:10256200FA6F0501006B30D00051050A04E1E7DE85
:102572000501006B29D00051070A04E145DD050180
:10258200006B22D00051080A09E17DEC0EF0306A9E
:10259200316A020EFA6F0501006B16D00051090A6A
:1025A20006E1F7EC0BF0006B0301FA6B0DD00501AD
:1025B2000051060A01E108D00051000A01E006DDDF
:1025C2000501006B0301FA6B2E6A0301FA51010A3D
:1025D20012E1000E006E05010251005C02E10151A0
:1025E200000809E20251315C02E10151305C03E36F
:1025F200A6DE0301FA6B0301FA51020A2AE1050180
:102602000151000810E2000E0301E55D04E105013D
:1026120001510301E45D07E3010EFB6F0CDD7DEC6C
:102622000EF0306A316A000E006E05010351005C43
:1026320002E1025100080DE20351315C02E1025154
:10264200305C07E30301FB6BF6DC7DEC0EF0306AD5
:06265200316A5AD7FFD7E0
:10265800156ED8CF16F0E0CF17F0F2AA07D0F2A483
:1026680005D0830ED66E304A312AF2949DAA29D01D
:102678009EAA27D0E9CFF7F3EACFF8F35A0E030161
:10268800E425E96E010EE521EA6EABA202D0AB9813
:10269800AB88AECFEFFFEC6AE44BE52B200EF96F69
:1026A800F95305E09EAA01D002D0F907F9D7F953EA
:1026B80001E101D0EED7F7C3E9FFF8C3EAFFFF0E47
:1026C800E66F1750E06E1650D86E153A15381000A0
:1026D80000C021F001C020F002C01FF003C01EF0AE
:1026E80004C01DF005C01CF008C01BF009C01AF09A
:1026F8000AC019F00BC018F0D9CF2CF0DACF2DF0A2
:10270800E1CF2AF0E2CF2BF0E9CF28F0EACF29F089
:10271800F3CF26F0F4CF27F0F5CF25F0F8CF22F04D
:10272800F7CF23F0F6CF24F0A2DC25C0F5FF22C0B6
:10273800F8FF23C0F7FF24C0F6FF26C0F3FF27C029
:10274800F4FF21C000F020C001F01FC002F01EC03D
:1027580003F01DC004F01CC005F01BC008F01AC02F
:1027680009F019C00AF018C00BF028C0E9FF29C009
:10277800EAFF2AC0E1FF2BC0E2FF2CC0D9FF2DC021
:04278800DAFF110063
:1029740010EE2EF0070E006E010E016E670EF66E5D
:0E298400290EF76E000EF86EDCEC0FF012005C
:10278C0009022900010104E03209040000020300DF
:10279C0000050921010100012221000705810340E8
:0927AC00000107050103400001D2
:1027B5004572726F72203A20556E6B6E6F776E2080
:1027C500426175645261746520496E6465780D0ACD
:0127D5000003
:1027D6000600FF0901A10119012940150026FF0085
:1027E60075089540810219012940750895409102A6
:0127F600C022
:1027F70053756363657373203A2042617564526150
:0C2807007465203131353230300D0A008C
:1028130053756363657373203A2042617564526133
:0C2823007465203132383030300D0A006E
:10282F0053756363657373203A2042617564526117
:0B283F0074652035363030300D0A0083
:10284A0053756363657373203A20426175645261FC
:0B285A0074652035373630300D0A0061
:1028650053756363657373203A20426175645261E1
:0B28750074652033383430300D0A0049
:1028800053756363657373203A20426175645261C6
:0B28900074652031343430300D0A0034
:10289B0053756363657373203A20426175645261AB
:0B28AB0074652031393230300D0A0016
:1028B60053756363657373203A2042617564526190
:0A28C600746520323430300D0A0032
:1028D00053756363657373203A2042617564526176
:0A28E000746520313230300D0A001B
:1028EA0053756363657373203A204261756452615C
:0A28FA00746520393630300D0A00F5
:1029040053756363657373203A2042617564526141
:0A291400746520343830300D0A00DD
:10291E0048494420746F2053657269616C204D6F75
:05292E0064756C6500FA
:102933001201000200000040BD1F0500000101025A
:0229430003018E
:0C294500495448534D30313030303100DF
:0B295100556E6B6E6F776E210D0A0053
:0B295C00494E4652412054656368005C
:01296700006F
:01296800006E
:0229690000006C
:01296B00006B
:01296C00006A
:01296D000069
:04296E000403090451
:012972000064
:012973000063
:020000040030CA
:0E0000002C0E3E1EFF0081FF00800FE00F401F
:00000001FF
